S01200004F56373637302D4156522E7372656383
S11300000C9440000C945D000C945D000C945D0015
S11300100C945D000C945D000C945D000C945D00E8
S11300200C945D000C945D000C945D000C945D00D8
S11300300C945D000C945D000C945D000C945D00C8
S11300400C945D000C945D000C9495040C94D40500
S11300500C945D000C945D000C945D000C945D00A8
S11300600C945D000C945D00890094009F00AC002A
S1130070BA00C800F700D100F700D800E200EB0096
S113008011241FBECFEFD8E0DEBFCDBF11E0A0E04A
S1130090B1E0E8E1FCE002C005900D92AC33B10799
S11300A0D9F725E0ACE3B1E001C01D92A734B20753
S11300B0E1F70E945F000C940A060C940000CF93B1
S11300C0DF9300D0CDB7DEB78FEF9FEF9A8389839C
S11300D00E940E040E9419017894812C912C68943A
S11300E0AA24A1F8B12C00EF10E00F2EFBE3CF2ED1
S11300F0DD24D394F02DEE24EA94FE2CE981FA81D8
S11301003197EC30F10508F072C0EC5CFF4F0C94B1
S1130110040680913E010E94630480913E010E9486
S1130120EF03FA82E98267C060913D0180913E014C
S11301300E9497030E946304FA82E9825CC00E94D1
S113014082010E945B01B501C8010E94B701FA82D5
S1130150E982812C912C4FC000913C0110E0102FBA
S1130160002780913D01082B84E00E946304FA82F9
S1130170E98241C0C0903C01D12CDC2CCC2480917C
S11301803D01C82A85E00E946304FA82E98233C0F3
S1130190A0903D01B12C86E00E946304FA82E982BA
S11301A02AC00E9419010E946304FA82E98223C0D2
S11301B0B501C8010E94B7018FEF881A980AFA8224
S11301C0E98219C0A501B801C40101970E94F9018F
S11301D0FA82E98210C00E9482010E945B01A5019B
S11301E0B601C8010E944002FA82E98204C0CE012D
S11301F001960E94EF048FE19EE40197F1F700C09D
S113020000007CCF209821982298239854985598E0
S113021056985798399838983A9A3B9A249A529A09
S1130220259A3D9A3C9A429A439A2C985A982A9A2B
S113023008950E9402012D982FEF81EE94E0215041
S113024080409040E1F700C000002D9A8FE99FE0C4
S11302500197F1F700C000008FE891E00197F1F7F2
S113026000C00000439842988FE99FE00197F1F79E
S113027000C000005A9A8FE99FE00197F1F700C08F
S113028000005A988FE99FE00197F1F700C0000041
S11302905A9A8FE99FE00197F1F700C000005A983D
S11302A08FE99FE00197F1F700C000000E94CA03A4
S11302B081118C590895429A5A9A8AE68A95F1F7DF
S11302C000C05A985A9A42985A988AE68A95F1F741
S11302D000C05A9A5A988AE68A95F1F700C05A9A49
S11302E05A98429A8AE68A95F1F700C05A9A5A981F
S11302F0089543988FE99FE00197F1F700C000004B
S1130300439A08952C98319BFECF0E94790131992C
S1130310FECF2C9A319BFECF2C98089563B1E3B1A4
S113032053B133B129B199B1F9B179B1E2705470D3
S11303305E2B6170562B3870432F452B2071322F62
S1130340342B9072292F232B9F2F9074892F822B6B
S1130350272F207830E0220F232F221F330B33273F
S11303603695322F222737952795822B0895CF92E1
S1130370DF92EF92FF920F931F93CF93DF936C0161
S11303808B011816190604F125C0C0E0D0E00E94C4
S11303908E010E9463045A9A8FE99FE00197F1F756
S11303A000C000005A988FE99FE00197F1F700C060
S11303B0000021960C171D0751F79FEFE91AF90A5F
S11303C0CE14DF0419F406C0E12CF12C101611062A
S11303D0E4F2F3CF8DE00E9463048AE00E94630498
S11303E0DF91CF911F910F91FF90EF90DF90CF900D
S11303F00895EF92FF920F931F93CF93DF937C01A5
S11304008B01EA010E945B0182E0E816F1043CF5ED
S11304102CC080E090E05A9AEFE9FFE03197F1F7C1
S113042000C000005A98EFE9FFE03197F1F700C0EF
S113043000000196C817D90771F72F5F3F4F0217C5
S1130440130719F406C020E030E01C161D060CF357
S1130450F4CF4F5F5F4FE416F50619F406C041E090
S113046050E0101611067CF3F4CFBE01C8010E94BF
S1130470B701DF91CF911F910F91FF90EF900895F5
S11304808F929F92AF92BF92CF92DF92EF92FF92A0
S11304900F931F93CF93DF937C015B01EA010E94CA
S11304A05B011A141B0474F133C0812C912C5A98EB
S11304B083E591E00197F1F700C000000E948E01EE
S11304C00E9463045A9A83E591E00197F1F700C012
S11304D000009FEF891A990AC815D90541F70F5FE3
S11304E01F4FE016F10619F406C000E010E01C16D8
S11304F01D06DCF2F4CF8FEFC81AD80AAC14BD0481
S113050019F406C0C12CD12C1E141F0474F3F3CFAC
S1130510DF91CF911F910F91FF90EF90DF90CF90DB
S1130520BF90AF909F908F900895449A8FE193E08D
S11305300197F1F700C00000459A8FE193E001971D
S1130540F1F700C0000044988FE193E00197F1F7C0
S113055000C0000045980895459844988FE193E0C1
S11305600197F1F700C00000459A8FE193E00197ED
S1130570F1F700C00000449A8FE193E00197F1F78E
S113058000C00000089527E030E090E0AC01022EA6
S113059002C0559547950A94E2F740FF02C0449A79
S11305A001C04498EFE1F3E03197F1F700C0000097
S11305B0459AEFE1F3E03197F1F700C00000459868
S11305C0EFE1F3E03197F1F700C000002150310969
S11305D0E8F644983C988FE193E00197F1F700C066
S11305E00000459AEFE1F3E03197F1F700C0000015
S11305F0349B08C080E091E00E944F040E94710483
S113060080E001C081E04598EFE1F3E03197F1F734
S113061000C000003C9A0895FC013C98449898E07E
S1130620AFE1B3E01197F1F700C00000459A349BA5
S113063005C02081220F2160208303C08081880FA0
S11306408083AFE1B3E01197F1F700C00000459853
S1130650AFE1B3E01197F1F700C00000915001F74A
S11306603C9A449A8FE193E00197F1F700C00000AF
S1130670459AAFE1B3E01197F1F700C00000459847
S11306808FE193E00197F1F700C00000449881E006
S113069008950F931F93CF93C82F8B010E94950247
S11306A082E40E94C302811104C00E94AC0281E072
S11306B03AC08FE193E00197F1F700C000008C2F5E
S11306C00E94C302811104C00E94AC0282E02BC0CC
S11306D08FE193E00197F1F700C000000E94AC02A3
S11306E08FE193E00197F1F700C000000E949502AA
S11306F083E40E94C302811104C00E94AC0283E01F
S113070012C08FE193E00197F1F700C00000C80127
S11307100E940C03811104C00E94AC0284E003C057
S11307200E94AC0280E0CF911F910F910895CF9366
S1130730DF93C82FD62F0E94950282E40E94C30241
S1130740811104C00E94AC0285E021C08FE193E0D6
S11307500197F1F700C000008C2F0E94C3028111A1
S113076004C00E94AC0286E012C08FE193E00197BE
S1130770F1F700C000008D2F0E94C302811104C054
S11307800E94AC0287E003C00E94AC0280E0DF91CB
S1130790CF910895CF93DF931F92CDB7DEB73C9AE4
S11307A03D9A459A449ABE016F5F7F4F82E10E9451
S11307B0490360E882E10E94970381110BC02FEF87
S11307C089E698E1215080409040E1F700C00000A4
S11307D080E001C0865F0F90DF91CF9108951F9351
S11307E0CF93DF931F92CDB7DEB71982BE016F5F3F
S11307F07F4F0E944903182F811104C089810E94F0
S1130800630407C08FE191E00E944F04812F0E948E
S113081063040F90DF91CF911F910895519A5098DE
S11308201092C50080E18093C400E0ECF0E082E027
S113083080838081808388E98093C1008EE08093E7
S1130840C200089540914103509142039A012F5FE1
S11308503F4F317060913F03709140032617370773
S113086059F0FA01E15CFE4F8083309342032093F8
S1130870410381E090E0089580E090E0089581E0F4
S113088090E040913F035091400320914103309107
S113089042034217530711F080E090E00895CF938C
S11308A0DF93EC018881882331F021960E94220491
S11308B089918111FBCFE1ECF0E08081806280833B
S11308C0DF91CF910895CF93C82F8C2F0E942204DB
S11308D0892BD9F3E1ECF0E0808180628083CF91B1
S11308E008958DE00E9463048AE00E9463040895E1
S11308F040914505509146059A012F5F3F4F317055
S113090060914305709144052617370759F0FA01A1
S1130910ED5BFC4F8083309346052093450581E0D1
S113092090E0089580E090E008951F920F920FB632
S11309300F9211242F933F934F935F936F937F9361
S11309408F939F93AF93BF93EF93FF938091C600D0
S11309500E947804FF91EF91BF91AF919F918F9185
S11309607F916F915F914F913F912F910F900FBEA7
S11309700F901F9018952091430530914405809164
S11309804505909146052817390761F0F901ED5B9B
S1130990FC4F80812F5F3F4F31703093440520938B
S11309A04305089580E0089580914505909146059A
S11309B0FC013297F170ED5BFC4F20812D3061F426
S11309C0FC013197F170ED5BFC4F81E090E02081F8
S11309D02A3021F080E0089580E090E00895EF92BD
S11309E0FF920F931F93CF93DF93CDB7DEB72E976C
S11309F00FB6F894DEBF0FBECDBF7C010E94D404B5
S1130A00009709F4ABC0FE0131968AE0DF011D9224
S1130A108A95E9F71E861D861C861B8601E010E078
S1130A200E94BB04EB85FC8521E030E02C0F3D1FC8
S1130A30E20FF31F80838B859C8501969C878B87AF
S1130A408B859C8502971CF41E870D8702C01E8629
S1130A501D86EB85FC858D859E85A1E0B0E0AC0FFD
S1130A60BD1FEA0FFB1FE80FF91F329780818D30FD
S1130A7039F4EB85FC85EC0FFD1F80818A3021F071
S1130A808B859C850A9764F28981813049F49A8127
S1130A9090933E0121E030E0F7013183208316C0BA
S1130AA0823061F49A8190933E019B8190933D0141
S1130AB022E030E0D7012D933C9316C0833031F40B
S1130AC023E030E0F701318320831CC0843061F4DB
S1130AD09A8190933D019B8190933C0124E030E006
S1130AE0D7012D933C9319C0853061F49A8190937A
S1130AF03D019B8190933C0125E030E0F701318377
S1130B00208313C0863049F49A8190933D0126E0F6
S1130B1030E0D7012D933C9310C0883031F428E0A5
S1130B2030E0F7013183208310C08A3031F48AE049
S1130B3090E0D7018D939C930FC08B3031F48BE000
S1130B4090E0F7019183808307C08C3029F48CE016
S1130B5090E0D7018D939C9381E090E02E960FB6A0
S1130B60F894DEBF0FBECDBFDF91CF911F910F91DF
S1130B70FF90EF90089520913F03309140038091BE
S1130B804103909142032817390761F0F901E15CB0
S1130B90FE4F80812F5F3F4F31703093400320938D
S1130BA03F03089580E008951F920F920FB60F92AD
S1130BB011242F933F934F935F936F937F938F935E
S1130BC09F93AF93BF93EF93FF930E943F04892BAE
S1130BD031F0E1ECF0E080818F7D808304C00E94DD
S1130BE0BB058093C600FF91EF91BF91AF919F9198
S1130BF08F917F916F915F914F913F912F910F90C2
S1130C000FBE0F901F901895EE0FFF1F0590F491E3
S10B0C10E02D0994F894FFCFD4
S1130C18534343423A2053636872656962656E20A0
S1130C286665686C67657363686C6167656E0045C3
S1130C3872726F723A20004665686C6572212045AD
S10F0C4872726F72636F64653A200000E2
S9030000FC
