S01200004F56373637302D4156522E7372656383
S11300000C9440000C945D000C945D000C945D0015
S11300100C945D000C945D000C945D000C945D00E8
S11300200C945D000C945D000C945D000C945D00D8
S11300300C945D000C945D000C945D000C945D00C8
S11300400C945D000C945D000C949A050C94C1060C
S11300500C945D000C945D000C945D000C945D00A8
S11300600C945D000C945D008D00F80003010E01FA
S11300701B012B013B015D015D015D014601520144
S113008011241FBECFEFD8E0DEBFCDBF12E0A0E049
S1130090B1E0E2EFFDE002C005900D92A836B10791
S11300A0D9F724E0A8E6B2E001C01D92A13BB20753
S11300B0E1F70E945F000C94F7060C940000CF93C4
S11300C0DF93CDB7DEB729970FB6F894DEBF0FBE26
S11300D0CDBF8FEF9FEF9A83898380EE91E09C835D
S11300E08B8380E892E09E838D8383E090E0988701
S11300F08F830E9431050E94550278941986E12C61
S1130100F12C0FEF1FEFE981FA81EC30F10508F0D3
S1130110D4C0EC5CFF4F0C94F10680E091E00E94A7
S113012062058AE00E94FC038BE00E94FC030E94AB
S11301307E058BE091E00E94620561E180E00E940F
S11301401B04D82E811105C083E292E00E9462054F
S113015009C089E191E00E9462058D2D0E94760517
S11301600E947E058CE291E00E94620580E10E947B
S11301705804D82E811105C083E292E00E946205E2
S113018009C089E191E00E9462058D2D0E947605E7
S11301900E947E0580E491E00E9462050E947E0533
S11301A086E591E00E94620581E10E94FC030E94C1
S11301B07E058CE591E00E9462058CE00E94FC03C0
S11301C082E10E94FC038EE30E94FC0364E080E26F
S11301D00E94C8048CE00E94FC0382E10E94FC039C
S11301E08EE30E94FC030E947E051A8309836DC07E
S11301F080916A020E94760580916A020E94FC0343
S11302001A83098362C06091690280916A020E9424
S113021097030E9476051A83098357C00E946C01D4
S11302206F8178858D819E810E94C6011A8309831E
S1130230E12CF12C4AC08091680290E0982F882725
S113024020916902822B9E838D8384E00E9476052F
S11302501A8309833AC08091680290E0982F882716
S113026020916902822B9C838B8385E00E94760512
S11302701A8309832AC08091690290E098878F834A
S113028086E00E9476051A8309831FC06F817885F2
S11302908D819E810E94C6018FEFE81AF80A1A83A5
S11302A0098313C04F8158856D817E81C7010197F1
S11302B00E940E021A83098308C00E94D205892B6A
S11302C021F0CE0101960E94EE058FE19EE4019794
S11302D0F1F700C0000017CF319BFECF439882E0B6
S11302E08A95F1F7439A2C98319BFECF2C9A87E894
S11302F093E10197F1F700C00000089542985A9ADB
S113030089EF90E00197F1F700C000005A9889EF57
S113031090E00197F1F700C000005A9A89EF90E04D
S11303200197F1F700C000005A9889EF90E0019717
S1130330F1F700C00000429A089563B1E3B153B1EC
S113034033B129B199B1F9B179B1E27054705E2B2E
S11303506170562B3870432F452B2071322F342B6C
S11303609072292F232B9F2F9074892F822B272F54
S1130370207830E0220F232F221F330B33273695AA
S1130380322F222737952795822B0895CF92DF921B
S1130390EF92FF920F931F93CF93DF936C018B0126
S11303A01816190634F12BC0C0E0D0E00E949D015C
S11303B00E9476055A9A89EF90E00197F1F700C000
S11303C000005A9889EF90E00197F1F700C000000F
S11303D085EA9EE00197F1F700C0000021960C1712
S11303E01D0721F79FEFE91AF90ACE14DF0419F467
S11303F006C0E12CF12C10161106B4F2F3CF8DE0F7
S11304000E9476058AE00E947605DF91CF911F91C4
S11304100F91FF90EF90DF90CF900895EF92FF92AD
S11304200F931F93CF93DF937C018B01EA010E940A
S11304307E0182E0E816F1043CF52CC080E090E0F7
S11304405A9AE9EFF0E03197F1F700C000005A98AA
S1130450E9EFF0E03197F1F700C000000196C8170A
S1130460D90771F72F5F3F4F0217130719F406C01E
S113047020E030E01C161D060CF3F4CF4F5F5F4FF5
S1130480E416F50619F406C041E050E01016110612
S11304907CF3F4CFBE01C8010E94C601DF91CF9165
S11304A01F910F91FF90EF900895CF9382E791E011
S11304B00E9462050E947E053998389820982198F8
S11304C02298239854985598569857983A9A3B9A54
S11304D0249A529A259A2C9A439889EF90E001978E
S11304E0F1F700C00000439A89EF90E00197F1F71B
S11304F000C0000042985A9A89EF90E00197F1F702
S113050000C000005A9889EF90E00197F1F700C00D
S113051000005A9A89EF90E00197F1F700C00000BB
S11305205A9889EF90E00197F1F700C00000429AD1
S11305302D9887E891E00E9462050E947E0589EF6C
S113054090E00197F1F700C0000083EF91E001977C
S1130550F1F700C000000E94C603C82F811107C034
S113056086E991E00E9462050E947E0507C08AEA3E
S113057091E00E9462058C2F0E9476058C2FCF910A
S11305800895449A82E48A95F1F700C0459A82E47A
S11305908A95F1F700C0449882E48A95F1F700C087
S11305A0459808954598449882E48A95F1F700C0E7
S11305B0459A82E48A95F1F700C0449A82E48A95C8
S11305C0F1F700C0089527E030E090E0AC01022E7E
S11305D002C0559547950A94E2F740FF02C0449A39
S11305E001C0449842E44A95F1F700C0459A42E4B8
S11305F04A95F1F700C0459842E44A95F1F700C0E6
S11306002150310918F744983C9882E48A95F1F70F
S113061000C0459A92E49A95F1F700C0349B08C053
S113062087EF91E00E9462050E947E0580E001C090
S113063081E0459842E44A95F1F700C03C9A089558
S1130640FC013C98449898E082E48A95F1F700C054
S1130650459A349B05C02081220F2160208303C06A
S11306608081880F808382E48A95F1F700C04598E1
S113067082E48A95F1F700C0915031F73C9A449A8C
S113068082E48A95F1F700C0459A82E48A95F1F7ED
S113069000C0459882E48A95F1F700C0449881E04F
S11306A008950F931F93CF93C82F8B010E94C1020B
S11306B082E40E94E302811104C00E94D20281E01C
S11306C032C082E48A95F1F700C08C2F0E94E302C5
S11306D0811104C00E94D20282E025C082E48A957E
S11306E0F1F700C00E94D20282E48A95F1F700C0BB
S11306F00E94C10283E40E94E302811104C00E94AB
S1130700D20283E010C082E48A95F1F700C0C801E8
S11307100E942003811104C00E94D20284E003C01D
S11307200E94D20280E0CF911F910F910895CF9340
S1130730DF93C82FD62F0E94C10282E40E94E302F5
S1130740811104C00E94D20285E01DC082E48A9512
S1130750F1F700C08C2F0E94E302811104C00E94B3
S1130760D20286E010C082E48A95F1F700C08D2F92
S11307700E94E302811104C00E94D20286E003C0F9
S11307800E94D20280E0DF91CF9108951F93CF930E
S1130790DF931F92CDB7DEB73C9A3D9A459A449AAF
S11307A0BE016F5F7F4F82E10E94510360E882E1E6
S11307B00E949703182F811110C086E192E00E94D5
S11307C062050E947E052FE986E891E02150804071
S11307D09040E1F700C0000009C089E292E00E9465
S11307E06205812F0E9476050E947E05812F0F905D
S11307F0DF91CF911F9108951F93CF93DF931F92A1
S1130800CDB7DEB71982BE016F5F7F4F0E945103DF
S1130810182F811104C089810E94760507C08BE4DA
S113082092E00E946205812F0E9476050F90DF916D
S1130830CF911F9108950F931F93CF93DF931F922E
S1130840CDB7DEB7182F062FBE016F5F7F4F802F05
S11308500E945103811126C081E090E002C0880FFC
S1130860991F1A95E2F71981182B612F802F0E9486
S11308709703811117C0BE016F5F7F4F802F0E94C5
S1130880510381110FC021E030E08981882311F0E8
S113089020E030E0812F90E02817390711F480E13F
S11308A001C080E00F90DF91CF911F910F910895C7
S11308B01F93CF93DF931F92CDB7DEB7182F198202
S11308C0BE016F5F7F4F80E70E94510311FB8827B1
S11308D080F9698180FB67F9698380E70E94970347
S11308E0BE016F5F7F4F81E70E945103698110FB56
S11308F067F9698381E70E94970362E181E00E94BE
S11309001B0462E483E00E941B040F90DF91CF91EB
S11309101F9108950F931F93CF93DF931F92CDB729
S1130920DEB7082F162FBE016F5F7F4F812F0E9405
S11309305103811127C061E070E002C0660F771F88
S11309400A95E2F7609509810623602F812F0E94A2
S11309509703811117C0BE016F5F7F4F812F0E94E3
S1130960510381110FC081E090E02981222311F00D
S113097080E090E0602F70E08617970711F481E122
S113098001C080E00F90DF91CF911F910F910895E6
S1130990CF93DF9300D01F92CDB7DEB7862B898328
S11309A01A826CE083E00E941B048A83882311F07E
S11309B08A8151C01B82BE016D5F7F4F8EE30E940E
S11309C051038A83882311F08A8145C08B81886012
S11309D08B836B818EE30E9497038A83882311F0B3
S11309E08A8139C01B82BE016D5F7F4F82E10E9404
S11309F051038A83882349F083E592E00E946205CB
S1130A008A810E9476058A8126C089819B81826CB5
S1130A1089238B8389819B818D73892B8B836B8144
S1130A2082E10E9497038A83882311F08A8113C08C
S1130A3060E485E00E948A048A83882311F08A8115
S1130A400AC060E484E00E941B048A83882311F0B6
S1130A508A8101C08A810F900F900F90DF91CF910E
S1130A600895519A50981092C50083E38093C4006E
S1130A70E0ECF0E08081808388E98093C1008EE01F
S1130A808093C2000895E0916C0491E09E0F209140
S1130A906B04921749F0F0E0E559FD4F8083909381
S1130AA06C0481E090E0089580E090E0089581E096
S1130AB090E030916B0420916C04321711F080E0C7
S1130AC090E00895CF93DF93EC018881882331F07F
S1130AD021960E94430589918111FBCFE1ECF0E05E
S1130AE0808180628083DF91CF9108950E944305C5
S1130AF0E1ECF0E080818062808308958DE00E94C3
S1130B0076058AE00E9476050895E091AE0491E0AE
S1130B109E0F9F732091AD04921749F0F0E0E359C2
S1130B20FB4F80839093AE0481E090E0089580E0D1
S1130B3090E008951F920F920FB60F9211242F93F5
S1130B403F934F935F936F937F938F939F93AF9351
S1130B50BF93EF93FF938091C6000E948505FF9198
S1130B60EF91BF91AF919F918F917F916F915F9121
S1130B704F913F912F910F900FBE0F901F9018959A
S1130B809091AD048091AE04981751F0E92FF0E0F4
S1130B90E359FB4F80819F5F9F739093AD04089549
S1130BA080E008958091AE0490E0FC013297EF73E9
S1130BB0FF27E359FB4F20812D3069F4FC01319765
S1130BC0EF73FF27E359FB4F81E090E020812A3047
S1130BD021F080E0089580E090E00895EF92FF9284
S1130BE00F931F93CF93DF93CDB7DEB72E970FB636
S1130BF0F894DEBF0FBECDBF7C010E94D2050097E2
S1130C0009F49BC0FE0131968AE0DF011D928A95AA
S1130C10E9F71E861D861C861B8601E010E00E94F3
S1130C20C005EB85FC8521E030E02C0F3D1FE20F71
S1130C30F31F80838B859C8501969C878B878B858E
S1130C409C8502971CF41E870D8702C01E861D8694
S1130C50EB85FC858D859E85A1E0B0E0AC0FBD1FC2
S1130C60EA0FFB1FE80FF91F329780818D3039F4AA
S1130C70EB85FC85EC0FFD1F80818A3021F08B858C
S1130C809C850A9764F28981813049F49A81909312
S1130C906A0221E030E0F7013183208316C08230FC
S1130CA061F49A8190936A029B819093690222E095
S1130CB030E0D7012D933C9316C0833031F423E008
S1130CC030E0F701318320831CC0843061F49A81C1
S1130CD0909369029B819093680224E030E0D701ED
S1130CE02D933C9319C0853061F49A8190936902E5
S1130CF09B819093680225E030E0F70131832083E3
S1130D0013C0863049F48A818093690286E090E0BA
S1130D10D7018D939C930FC08A3031F48AE090E020
S1130D20F7019183808307C08B3029F48BE090E036
S1130D30D7018D939C9381E090E02E960FB6F894A2
S1130D40DEBF0FBECDBFDF91CF911F910F91FF90FA
S1130D50EF90089590916B0480916C04981779F04A
S1130D60E92FF0E0E559FD4F8081282F30E03093E2
S1130D70B0042093AF049F5F90936B04089580E0C8
S1130D8008951F920F920FB60F9211242F933F9341
S1130D904F935F936F937F938F939F93AF93BF937F
S1130DA0EF93FF930E945705892B31F0E1ECF0E0BB
S1130DB080818F7D808304C00E94AA068093C60030
S1130DC0FF91EF91BF91AF919F918F917F916F911F
S1130DD05F914F913F912F910F900FBE0F901F90F5
S1130DE01895EE0FFF1F0590F491E02D0994F894E7
S1050DF0FFCF2F
S1130DF244657669636549443A2000736574204307
S1130E024C4B52433A2E2E2E006661696C65642166
S1130E12204572726F72636F64653A007365742061
S1130E22546573747061747465726E3A2E2E2E005A
S1130E322D2D2D2D2D2D2D2D2D2D2D2D2D2D2D2DDC
S1130E422D2D2D2D2D00434C4B3A200073657474C7
S1130E52696E6720566964656F666F726D61743A74
S1130E6220004F56373637305F696E69742E2E2E46
S1130E7220737461727400486172647761726520D0
S1130E82526573657400696E6974204F763736371C
S1130E92302E2E2E20646F6E65004665686C657276
S1130EA22062656920496E697469616C6973696558
S1130EB272756E673A204572726F72436F64653A57
S1130EC220004F563736373020636F6E6E65637479
S1130ED26564006E6F2064657669636520636F6E76
S1130EE26E656374656400534343423A20536368F6
S1130EF272656962656E206665686C6765736368AE
S1130F026C6167656E00696E6974205343434220C5
S1130F122E2E2E646F6E6521005265736574205304
S1130F224343422E2E2E206661696C65642C204553
S1130F3272726F72436F64653A20004572726F7207
S1130F423A20004665686C657221204572726F72A0
S10B0F52636F64653A2000009E
S9030000FC
