S01200004F56373637302D4156522E7372656383
S11300000C9441000C945E000C945E000C945E0011
S11300100C945E000C945E000C945E000C945E00E4
S11300200C945E000C945E000C945E000C945E00D4
S11300300C945E000C945E000C945E000C945E00C4
S11300400C945E000C945E000C9415060C944B0703
S11300500C945E000C945E000C945E000C945E00A4
S11300600C945E000C945E00A4000F011A0125019B
S11300703601460156018E0161018E016801740149
S11300807F0111241FBECFEFD8E0DEBFCDBF11E04A
S1130090A0E0B1E0E6E0FFE002C005900D92A43BD1
S11300A0B107D9F725E0A4EBB1E001C01D92AD3B47
S11300B0B207E1F70E9460000C9481070C940000E1
S11300C0CF93DF93CDB7DEB729970FB6F894DEBF91
S11300D00FBECDBF8FEF9FEF9A8389838BE391E0AF
S11300E09C838B8380EF90E09E838D8382E090E0FD
S11300F098878F8319860E94AB050E94B401789477
S1130100E12CF12C0FEF1FEF0E9416020E94F60162
S11301104F8158856B817C818D819E810E94D302A1
S11301202AEA36EE86E991E0215030408040904042
S1130130D9F70000E981FA81ED30F10508F0EEC04D
S1130140EC5CFF4F0C947B0780E091E00E94DE059D
S11301508AE00E9476048BE00E9476040E94FA05ED
S11301608BE091E00E94DE0561E180E00E9495044D
S1130170D82E811105C089E191E00E94DE0509C0F5
S11301808FE191E00E94DE058D2D0E94F2050E9410
S1130190FA0582E391E00E94DE0580E10E94D20428
S11301A0D82E811105C089E191E00E94DE0509C0C5
S11301B08FE191E00E94DE058D2D0E94F2050E94E0
S11301C0FA0586E491E00E94DE050E94FA058CE5BA
S11301D091E00E94DE0581E10E9476040E94FA0506
S11301E082E691E00E94DE058CE00E94760482E1C2
S11301F00E9476048EE30E94760464E080E20E940A
S113020042058CE00E94760482E10E9476048EE32B
S11302100E9476040E94FA051A83098387C080919C
S1130220B6010E94F2058091B6010E9476041A83F9
S113023009837CC06091B5018091B6010E941E04BF
S11302400E94F2051A83098371C00E9416020E945B
S11302500D020E94F6016F8178858D819E810E9436
S113026056021A830983E12CF12C60C08091B401F9
S113027090E0982F88272091B501822B9E838D834F
S113028084E00E94F2051A83098350C08091B4016E
S113029090E0982F88272091B501822B9C838B8333
S11302A085E00E94F2051A83098340C08091B5015C
S11302B090E098878F8386E00E94F2051A83098371
S11302C035C00E94B4010E94F2051A8309832EC02E
S11302D06F8178858D819E810E9456022FEFE21AEC
S11302E0F20A1A83098322C04F8158856D817E8169
S11302F0C70101970E948C021A83098317C00E94C8
S113030016020E94F6014F8158856B817C818D8194
S11303109E810E94D3021A83098308C00E944C065E
S1130320892B21F0CE0101960E9466068FE19EE49E
S11303300197F1F700C00000E7CE20982198229899
S113034023985498559856985798399838983A9AC3
S11303503B9A249A529A259A3D9A3C9A429A439AF5
S11303602C985A982A9A08950E949D012D982FEF4F
S113037081EE94E0215080409040E1F700C00000FD
S11303802D9A8FE99FE00197F1F700C000008FE8F4
S113039091E00197F1F700C00000439842988FE97B
S11303A09FE00197F1F700C000005A9A8FE99FE09F
S11303B00197F1F700C000005A988FE99FE0019778
S11303C0F1F700C000005A9A8FE99FE00197F1F716
S11303D000C000005A988FE99FE00197F1F700C030
S11303E000000E94510481118C59089542985A9A30
S11303F08AE68A95F1F700C05A988AE68A95F1F759
S113040000C05A9A8AE68A95F1F700C05A988AE69B
S11304108A95F1F700C0429A089543988FE99FE0C6
S11304200197F1F700C00000439A08952C98319B7E
S1130430FECF0E940D023199FECF2C9A319BFECF44
S11304402C982FEF89EF90E0215080409040E1F705
S113045000C000000E940D02089563B1E3B153B1DE
S113046033B129B199B1F9B179B1E27054705E2B0D
S11304706170562B3870432F452B2071322F342B4B
S11304809072292F232B9F2F9074892F822B272F33
S1130490207830E0220F232F221F330B3327369589
S11304A0322F222737952795822B0895CF92DF92FA
S11304B0EF92FF920F931F93CF93DF936C018B0105
S11304C018161906A4F019C0C0E0D0E00E942D024D
S11304D00E94F2055A9A5A9821960C171D07B1F7F3
S11304E08FEFE81AF80ACE14DF0419F406C0E12CE1
S11304F0F12C1016110644F3F3CF8DE00E94F2059F
S11305008AE00E94F205DF91CF911F910F91FF9035
S1130510EF90DF90CF900895EF92FF920F931F9387
S1130520CF93DF937C018B01EA010E94F60182E004
S1130530E816F1043CF52CC080E090E05A9AEFE90B
S1130540FFE03197F1F700C000005A98EFE9FFE0AF
S11305503197F1F700C000000196C817D90771F769
S11305602F5F3F4F0217130719F406C020E030E055
S11305701C161D060CF3F4CF4F5F5F4FE416F5060F
S113058019F406C041E050E0101611067CF3F4CFD4
S1130590BE01C8010E945602DF91CF911F910F91B5
S11305A0FF90EF9008958F929F92AF92BF92CF9257
S11305B0DF92EF92FF920F931F93CF93DF937C010F
S11305C05B01EA010E94F6011A141B0414F127C00E
S11305D0812C912C5A9A0E942D020E94F2055A985D
S11305E08FEF881A980AC815D905A1F70F5F1F4F16
S11305F0E016F10619F406C000E010E01C161D0612
S11306003CF3F4CF8FEFC81AD80AAC14BD0419F424
S113061006C0C12CD12C1E141F0474F3F3CFDF9138
S1130620CF911F910F91FF90EF90DF90CF90BF90EB
S1130630AF909F908F900895449A8FE193E0019733
S1130640F1F700C00000459A8FE193E00197F1F7BC
S113065000C0000044988FE193E00197F1F700C0D7
S1130660000045980895459844988FE193E00197D8
S1130670F1F700C00000459A8FE193E00197F1F78C
S113068000C00000449A8FE193E00197F1F700C0A5
S11306900000089527E030E090E0AC01022E02C093
S11306A0559547950A94E2F740FF02C0449A01C069
S11306B04498EFE1F3E03197F1F700C00000459A68
S11306C0EFE1F3E03197F1F700C000004598EFE166
S11306D0F3E03197F1F700C0000021503109E8F64A
S11306E044983C988FE193E00197F1F700C0000033
S11306F0459AEFE1F3E03197F1F700C00000349B35
S113070008C088E791E00E94DE050E94FA0580E0B7
S113071001C081E04598EFE1F3E03197F1F700C0C3
S113072000003C9A0895FC013C98449898E0AFE19D
S1130730B3E01197F1F700C00000459A349B05C05F
S11307402081220F2160208303C08081880F808351
S1130750AFE1B3E01197F1F700C000004598AFE1B5
S1130760B3E01197F1F700C00000915001F73C9AF3
S1130770449A8FE193E00197F1F700C00000459A95
S1130780AFE1B3E01197F1F700C0000045988FE1A5
S113079093E00197F1F700C00000449881E00895C8
S11307A00F931F93CF93C82F8B010E941C0382E4E5
S11307B00E944A03811104C00E94330381E03AC0BD
S11307C08FE193E00197F1F700C000008C2F0E94A5
S11307D04A03811104C00E94330382E02BC08FE1DD
S11307E093E00197F1F700C000000E9433038FE10A
S11307F093E00197F1F700C000000E941C0383E41A
S11308000E944A03811104C00E94330383E012C092
S11308108FE193E00197F1F700C00000C8010E9446
S11308209303811104C00E94330384E003C00E9437
S1130830330380E0CF911F910F910895CF93DF93FD
S1130840C82FD62F0E941C0382E40E944A03811100
S113085004C00E94330385E021C08FE193E0019737
S1130860F1F700C000008C2F0E944A03811104C0DC
S11308700E94330386E012C08FE193E00197F1F701
S113088000C000008D2F0E944A03811104C00E9401
S1130890330387E003C00E94330380E0DF91CF91EC
S11308A00895CF93DF931F92CDB7DEB73C9A3D9A5C
S11308B0459A449ABE016F5F7F4F82E10E94D00344
S11308C060E882E10E941E0481110BC02FEF89E6CB
S11308D098E1215080409040E1F700C0000080E0A2
S11308E001C0865F0F90DF91CF9108951F93CF933E
S11308F0DF931F92CDB7DEB71982BE016F5F7F4FC2
S11309000E94D003182F811104C089810E94F2052E
S113091007C087E991E00E94DE05812F0E94F2055D
S11309200F90DF91CF911F9108950F931F93CF9351
S1130930DF931F92CDB7DEB7182F062FBE016F5F6E
S11309407F4F802F0E94D003811126C081E090E068
S113095002C0880F991F1A95E2F71981182B612F8D
S1130960802F0E941E04811117C0BE016F5F7F4F4C
S1130970802F0E94D00381110FC021E030E08981D3
S1130980882311F020E030E0812F90E02817390708
S113099011F480E101C080E00F90DF91CF911F91AD
S11309A00F9108951F93CF93DF931F92CDB7DEB7B6
S11309B0182F1982BE016F5F7F4F80E70E94D0031A
S11309C011FB882780F9698180FB67F9698380E7D7
S11309D00E941E04BE016F5F7F4F81E70E94D00317
S11309E0698110FB67F9698381E70E941E0462E153
S11309F081E00E94950462E483E00E9495040F90D4
S1130A00DF91CF911F9108950F931F93CF93DF939D
S1130A101F92CDB7DEB7082F162FBE016F5F7F4F31
S1130A20812F0E94D003811127C061E070E002C0D1
S1130A30660F771F0A95E2F7609509810623602FF8
S1130A40812F0E941E04811117C0BE016F5F7F4F6A
S1130A50812F0E94D00381110FC081E090E0298191
S1130A60222311F080E090E0602F70E08617970752
S1130A7011F481E101C080E00F90DF91CF911F91CB
S1130A800F910895CF93DF9300D01F92CDB7DEB7B7
S1130A90862B89831A826CE083E00E9495048A8302
S1130AA0882311F08A8151C01B82BE016D5F7F4F84
S1130AB08EE30E94D0038A83882311F08A8145C083
S1130AC08B8188608B836B818EE30E941E048A83F2
S1130AD0882311F08A8139C01B82BE016D5F7F4F6C
S1130AE082E10E94D0038A83882349F08FE991E050
S1130AF00E94DE058A810E94F2058A8126C08981CE
S1130B009B81826C89238B8389819B818D73892B43
S1130B108B836B8182E10E941E048A83882311F0F7
S1130B208A8113C060E485E00E9404058A838823D7
S1130B3011F08A810AC060E484E00E9495048A83EB
S1130B40882311F08A8101C08A810F900F900F9041
S1130B50DF91CF910895519A50981092C500109248
S1130B60C400E0ECF0E082E080838081808388E947
S1130B708093C1008EE08093C20008959091B803E1
S1130B809F5F2091B703921759F0A8EBB3E0EC9163
S1130B90F0E0E954FE4F80839C9381E090E0089557
S1130BA080E090E008953091B7032091B80381E08C
S1130BB090E0321711F080E090E00895CF93DF9336
S1130BC0EC018881882331F021960E94BE05899129
S1130BD08111FBCFE1ECF0E0808180628083DF91C2
S1130BE0CF9108950E94BE05E1ECF0E0808180621F
S1130BF0808308958DE00E94F2058AE00E94F20548
S1130C000895E091BA0591E09E0F2091B9059217DD
S1130C1049F0F0E0E754FC4F80839093BA0581E0FB
S1130C2090E0089580E090E008951F920F920FB62F
S1130C300F9211242F933F934F935F936F937F935E
S1130C408F939F93AF93BF93EF93FF938091C600CD
S1130C500E940106FF91EF91BF91AF919F918F91F7
S1130C607F916F915F914F913F912F910F900FBEA4
S1130C700F901F9018959091B9058091BA05981717
S1130C8049F0E92FF0E0E754FC4F80819F5F909397
S1130C90B905089580E008958091BA0590E0FC01BB
S1130CA03297F170E754FC4F20812D3061F4FC0140
S1130CB03197F170E754FC4F81E090E020812A30B5
S1130CC021F080E0089580E090E00895EF92FF9293
S1130CD00F931F93CF93DF93CDB7DEB72E970FB645
S1130CE0F894DEBF0FBECDBF7C010E944C06009776
S1130CF009F4ABC0FE0131968AE0DF011D928A95AA
S1130D00E9F71E861D861C861B8601E010E00E9402
S1130D103B06EB85FC8521E030E02C0F3D1FE20F04
S1130D20F31F80838B859C8501969C878B878B859D
S1130D309C8502971CF41E870D8702C01E861D86A3
S1130D40EB85FC858D859E85A1E0B0E0AC0FBD1FD1
S1130D50EA0FFB1FE80FF91F329780818D3039F4B9
S1130D60EB85FC85EC0FFD1F80818A3021F08B859B
S1130D709C850A9764F28981813049F49A81909321
S1130D80B60121E030E0F7013183208316C08230C0
S1130D9061F49A819093B6019B819093B50122E00E
S1130DA030E0D7012D933C9316C0833031F423E017
S1130DB030E0F701318320831CC0843061F49A81D0
S1130DC09093B5019B819093B40124E030E0D70166
S1130DD02D933C9319C0853061F49A819093B501A9
S1130DE09B819093B40125E030E0F70131832083A7
S1130DF013C0863049F49A819093B50126E030E01F
S1130E00D7012D933C9310C0883031F428E030E0B2
S1130E10F7013183208310C08A3031F48AE090E0F6
S1130E20D7018D939C930FC08B3031F48BE090E00D
S1130E30F7019183808307C08C3029F48CE090E023
S1130E40D7018D939C9381E090E02E960FB6F89491
S1130E50DEBF0FBECDBFDF91CF911F910F91FF90E9
S1130E60EF9008959091B7038091B803981789F093
S1130E70A7EBB3E0EC91F0E0E954FE4F8081282F1A
S1130E8030E03093BC052093BB059C919F5F9C93FD
S1130E90089580E008951F920F920FB60F921124C7
S1130EA02F933F934F935F936F937F938F939F936E
S1130EB0AF93BF93EF93FF930E94D305892B31F037
S1130EC0E1ECF0E080818F7D808304C00E943207D2
S1130ED08093C600FF91EF91BF91AF919F918F9145
S1130EE07F916F915F914F913F912F910F900FBE22
S1130EF00F901F901895EE0FFF1F0590F491E02DB1
S1090F000994F894FFCFF0
S1130F0644657669636549443A20007365742043F1
S1130F164C4B52433A2E2E2E00646F6E65210066AA
S1130F2661696C656421204572726F72636F6465D2
S1130F363A007365742054657374706174746572D1
S1130F466E3A2E2E2E002D2D2D2D2D2D2D2D2D2DA3
S1130F562D2D2D2D2D2D2D2D2D2D2D00434C4B3A84
S1130F66200073657474696E6720566964656F66DC
S1130F766F726D61743A2000534343423A205363BF
S1130F866872656962656E206665686C6765736319
S1130F96686C6167656E004572726F723A2000462E
S1130FA665686C657221204572726F72636F646541
S1070FB63A200000D9
S9030000FC
