S01200004F56373637302D4156522E7372656383
S11300000C9434000C9449000C9449000C9449005D
S11300100C9449000C9449000C9449000C94490038
S11300200C9449000C9449000C9449000C94490028
S11300300C9449000C9449000C9449000C94490018
S11300400C9449000C9449000C9449000C94490008
S11300500C9449000C9449000C9449000C944900F8
S11300600C9449000C94490011241FBECFEFD8E032
S1130070DEBFCDBF11E0A0E0B1E0ECE3F1E002C0EF
S113008005900D92A230B107D9F70E944B000C9451
S11300909C000C940000CF93DF931F92CDB7DEB782
S11300A0BE016F5F7F4F8AE00E9460002FE986E8FF
S11300B091E0215080409040E1F700C00000F0CF73
S11300C094EA9093BC00ECEBF0E090819923ECF778
S11300D090910001990F9093BB0094E89093BC0019
S11300E0ECEBF0E090819923ECF78093BB0084E87B
S11300F08093BC00ECEBF0E080818823ECF784EA89
S11301008093BC00ECEBF0E080818823ECF78091D5
S11301100001880F81608093BB0084E88093BC0059
S1130120ECEBF0E080818823ECF78091BB00FB01CD
S10F0130808381E090E00895F894FFCFF4
S105013C21009C
S9030000FC
