S01200004F56373637302D4156522E7372656383
S11300000C9440000C945D000C945D000C945D0015
S11300100C945D000C945D000C945D000C945D00E8
S11300200C945D000C945D000C945D000C945D00D8
S11300300C945D000C945D000C945D000C945D00C8
S11300400C945D000C945D000C947E050C94A50644
S11300500C945D000C945D000C945D000C945D00A8
S11300600C945D000C945D008500F000FB0006011B
S113007011011F0125014101410141012E013801F6
S113008011241FBECFEFD8E0DEBFCDBF12E0A0E049
S1130090B1E0EAEBFDE002C005900D92A836B1078D
S11300A0D9F724E0A8E6B2E001C01D92A13BB20753
S11300B0E1F70E945F000C94DB060C940000CF93E0
S11300C0DF9300D01F92CDB7DEB78FEF9FEF9A83F7
S11300D089830E9415050E94390278941B82A12C01
S11300E0B12C0F2EF3E0CF2ED12CF02D00E812E02E
S11300F0EE24EA94FE2CE981FA81EC30F10508F053
S1130100C0C0EC5CFF4F0C94D50680E091E00E94E7
S113011046058AE00E94E0038BE00E94E0030E940F
S113012062058BE091E00E94460561E180E00E9457
S1130130FF03982E811105C083E292E00E944605D8
S113014009C089E191E00E944605892D0E945A0563
S11301500E9462058CE291E00E94460580E10E94C3
S11301603C04982E811105C083E292E00E9446056A
S113017009C089E191E00E944605892D0E945A0533
S11301800E94620580E491E00E9446050E94620597
S113019086E591E00E94460581E10E94E0030E9409
S11301A062058CE591E00E9446058CE00E94E00324
S11301B082E10E94E0038EE30E94E00364E080E2B7
S11301C00E94AC048CE00E94E00382E10E94E00300
S11301D08EE30E94E0030E946205FA82E98259C01C
S11301E080916A020E945A0580916A020E94E0038B
S11301F0FA82E9824EC06091690280916A020E948B
S11302007B030E945A05FA82E98243C00E9450018E
S1130210B601C8010E94AA01FA82E982A12CB12C7C
S113022038C00091690210E0102F00278091680205
S1130230082B84E00E945A05FA82E9822AC085E0EC
S11302400E945A05FA82E98224C0C0906902D12C26
S113025086E00E945A05FA82E9821BC0B601C801F1
S11302600E94AA018FEFA81AB80AFA82E98211C083
S1130270A601B801C50101970E94F201FA82E98240
S113028008C00E94B605892B21F0CE0101960E9478
S1130290D2058FE19EE40197F1F700C000002BCF57
S11302A0319BFECF439882E08A95F1F7439A2C98CC
S11302B0319BFECF2C9A87E893E10197F1F700C0B8
S11302C00000089542985A9A89EF90E00197F1F757
S11302D000C000005A9889EF90E00197F1F700C040
S11302E000005A9A89EF90E00197F1F700C00000EE
S11302F05A9889EF90E00197F1F700C00000429A04
S1130300089563B1E3B153B133B129B199B1F9B1EE
S113031079B1E27054705E2B6170562B3870432FA4
S1130320452B2071322F342B9072292F232B9F2F92
S11303309074892F822B272F207830E0220F232FCF
S1130340221F330B33273695322F222737952795D3
S1130350822B0895CF92DF92EF92FF920F931F9317
S1130360CF93DF936C018B011816190634F12BC05F
S1130370C0E0D0E00E9481010E945A055A9A89EF98
S113038090E00197F1F700C000005A9889EF90E0DF
S11303900197F1F700C0000085EA9EE00197F1F7AC
S11303A000C0000021960C171D0721F79FEFE91AE2
S11303B0F90ACE14DF0419F406C0E12CF12C10164E
S11303C01106B4F2F3CF8DE00E945A058AE00E9430
S11303D05A05DF91CF911F910F91FF90EF90DF901D
S11303E0CF900895EF92FF920F931F93CF93DF93D3
S11303F07C018B01EA010E94620182E0E816F104AB
S11304003CF52CC080E090E05A9AE9EFF0E0319797
S1130410F1F700C000005A98E9EFF0E03197F1F7E6
S113042000C000000196C817D90771F72F5F3F4F2E
S11304300217130719F406C020E030E01C161D064D
S11304400CF3F4CF4F5F5F4FE416F50619F406C0C2
S113045041E050E0101611067CF3F4CFBE01C80150
S11304600E94AA01DF91CF911F910F91FF90EF900D
S11304700895CF9382E791E00E9446050E946205A9
S11304803998389820982198229823985498559808
S1130490569857983A9A3B9A249A529A259A2C9AA3
S11304A0439889EF90E00197F1F700C00000439A68
S11304B089EF90E00197F1F700C0000042985A9A42
S11304C089EF90E00197F1F700C000005A9889EF96
S11304D090E00197F1F700C000005A9A89EF90E08C
S11304E00197F1F700C000005A9889EF90E0019756
S11304F0F1F700C00000429A2D9887E891E00E942D
S113050046050E94620589EF90E00197F1F700C06B
S1130510000083EF91E00197F1F700C000000E9412
S1130520AA03C82F811107C086E991E00E944605FD
S11305300E94620507C08AEA91E00E9446058C2F5A
S11305400E945A058C2FCF910895449A82E48A958B
S1130550F1F700C0459A82E48A95F1F700C0449807
S113056082E48A95F1F700C0459808954598449827
S113057082E48A95F1F700C0459A82E48A95F1F7FE
S113058000C0449A82E48A95F1F700C0089527E0F8
S113059030E090E0AC01022E02C0559547950A94D4
S11305A0E2F740FF02C0449A01C0449842E44A95ED
S11305B0F1F700C0459A42E44A95F1F700C0459826
S11305C042E44A95F1F700C02150310918F74498E4
S11305D03C9882E48A95F1F700C0459A92E49A9592
S11305E0F1F700C0349B08C087EF91E00E944605F4
S11305F00E94620580E001C081E0459842E44A958A
S1130600F1F700C03C9A0895FC013C98449898E0A6
S113061082E48A95F1F700C0459A349B05C0208195
S1130620220F2160208303C08081880F808382E4AD
S11306308A95F1F700C0459882E48A95F1F700C0E5
S1130640915031F73C9A449A82E48A95F1F700C0BC
S1130650459A82E48A95F1F700C0459882E48A9528
S1130660F1F700C0449881E008950F931F93CF934E
S1130670C82F8B010E94A50282E40E94C702811147
S113068004C00E94B60281E032C082E48A95F1F788
S113069000C08C2F0E94C702811104C00E94B602C0
S11306A082E025C082E48A95F1F700C00E94B60278
S11306B082E48A95F1F700C00E94A50283E40E94B7
S11306C0C702811104C00E94B60283E010C082E414
S11306D08A95F1F700C0C8010E940403811104C087
S11306E00E94B60284E003C00E94B60280E0CF916B
S11306F01F910F910895CF93DF93C82FD62F0E9497
S1130700A50282E40E94C702811104C00E94B602BD
S113071085E01DC082E48A95F1F700C08C2F0E9409
S1130720C702811104C00E94B60286E010C082E4B0
S11307308A95F1F700C08D2F0E94C702811104C071
S11307400E94B60286E003C00E94B60280E0DF91F8
S1130750CF9108951F93CF93DF931F92CDB7DEB748
S11307603C9A3D9A459A449ABE016F5F7F4F82E15D
S11307700E94350360E882E10E947B03182F8111F7
S113078010C086E192E00E9446050E9462052FE9AE
S113079086E891E0215080409040E1F700C00000DD
S11307A009C089E292E00E944605812F0E945A0501
S11307B00E946205812F0F90DF91CF911F910895C0
S11307C01F93CF93DF931F92CDB7DEB71982BE017B
S11307D06F5F7F4F0E943503182F811104C08981F8
S11307E00E945A0507C08BE492E00E944605812FBF
S11307F00E945A050F90DF91CF911F9108950F9396
S11308001F93CF93DF931F92CDB7DEB7182F062F18
S1130810BE016F5F7F4F802F0E943503811126C078
S113082081E090E002C0880F991F1A95E2F71981C0
S1130830182B612F802F0E947B03811117C0BE01EA
S11308406F5F7F4F802F0E94350381110FC021E01D
S113085030E08981882311F020E030E0812F90E09E
S11308602817390711F480E101C080E00F90DF916F
S1130870CF911F910F9108951F93CF93DF931F92F0
S1130880CDB7DEB7182F1982BE016F5F7F4F80E7A7
S11308900E94350311FB882780F9698180FB67F981
S11308A0698380E70E947B03BE016F5F7F4F81E70E
S11308B00E943503698110FB67F9698381E70E940F
S11308C07B0362E181E00E94FF0362E483E00E9413
S11308D0FF030F90DF91CF911F9108950F931F9302
S11308E0CF93DF931F92CDB7DEB7082F162FBE012B
S11308F06F5F7F4F812F0E943503811127C061E014
S113090070E002C0660F771F0A95E2F760950981CF
S11309100623602F812F0E947B03811117C0BE0123
S11309206F5F7F4F812F0E94350381110FC081E0DB
S113093090E02981222311F080E090E0602F70E0A4
S11309408617970711F481E101C080E00F90DF91D1
S1130950CF911F910F910895CF93DF9300D01F92F1
S1130960CDB7DEB7862B89831A826CE083E00E94C0
S1130970FF038A83882311F08A8151C01B82BE0140
S11309806D5F7F4F8EE30E9435038A83882311F0C5
S11309908A8145C08B8188608B836B818EE30E9442
S11309A07B038A83882311F08A8139C01B82BE01AC
S11309B06D5F7F4F82E10E9435038A83882349F06B
S11309C083E592E00E9446058A810E945A058A8145
S11309D026C089819B81826C89238B8389819B8139
S11309E08D73892B8B836B8182E10E947B038A83C5
S11309F0882311F08A8113C060E485E00E946E04AC
S1130A008A83882311F08A810AC060E484E00E940A
S1130A10FF038A83882311F08A8101C08A810F90A1
S1130A200F900F90DF91CF910895519A50981092A2
S1130A30C50083E38093C400E0ECF0E08081808310
S1130A4088E98093C1008EE08093C2000895E0910C
S1130A506C0491E09E0F20916B04921749F0F0E032
S1130A60E559FD4F808390936C0481E090E00895F4
S1130A7080E090E0089581E090E030916B04209153
S1130A806C04321711F080E090E00895CF93DF9367
S1130A90EC018881882331F021960E9427058991F1
S1130AA08111FBCFE1ECF0E0808180628083DF91F3
S1130AB0CF9108950E942705E1ECF0E080818062E7
S1130AC0808308958DE00E945A058AE00E945A05A9
S1130AD00895E091AE0491E09E0F9F732091AD04C0
S1130AE0921749F0F0E0E359FB4F80839093AE04F2
S1130AF081E090E0089580E090E008951F920F92C5
S1130B000FB60F9211242F933F934F935F936F93DC
S1130B107F938F939F93AF93BF93EF93FF938091B2
S1130B20C6000E946905FF91EF91BF91AF919F911B
S1130B308F917F916F915F914F913F912F910F9082
S1130B400FBE0F901F9018959091AD048091AE0444
S1130B50981751F0E92FF0E0E359FB4F80819F5F34
S1130B609F739093AD04089580E008958091AE043E
S1130B7090E0FC013297EF73FF27E359FB4F20818C
S1130B802D3069F4FC013197EF73FF27E359FB4FD4
S1130B9081E090E020812A3021F080E0089580E017
S1130BA090E00895EF92FF920F931F93CF93DF93FA
S1130BB0CDB7DEB72E970FB6F894DEBF0FBECDBF0C
S1130BC07C010E94B605009709F49BC0FE01319692
S1130BD08AE0DF011D928A95E9F71E861D861C8630
S1130BE01B8601E010E00E94A405EB85FC8521E052
S1130BF030E02C0F3D1FE20FF31F80838B859C8513
S1130C0001969C878B878B859C8502971CF41E8795
S1130C100D8702C01E861D86EB85FC858D859E850D
S1130C20A1E0B0E0AC0FBD1FEA0FFB1FE80FF91FF6
S1130C30329780818D3039F4EB85FC85EC0FFD1FF4
S1130C4080818A3021F08B859C850A9764F28981A2
S1130C50813049F49A8190936A0221E030E0F701EF
S1130C603183208316C0823061F49A8190936A02A2
S1130C709B819093690222E030E0D7012D933C934D
S1130C8016C0833031F423E030E0F7013183208350
S1130C901CC0843061F49A81909369029B81909383
S1130CA0680224E030E0D7012D933C9319C08530CD
S1130CB061F49A81909369029B819093680225E084
S1130CC030E0F7013183208313C0863049F48A81F0
S1130CD08093690286E090E0D7018D939C930FC0C6
S1130CE08A3031F48AE090E0F7019183808307C071
S1130CF08B3029F48BE090E0D7018D939C9381E0B5
S1130D0090E02E960FB6F894DEBF0FBECDBFDF91F4
S1130D10CF911F910F91FF90EF90089590916B04E4
S1130D2080916C04981779F0E92FF0E0E559FD4FB4
S1130D308081282F30E03093B0042093AF049F5F6C
S1130D4090936B04089580E008951F920F920FB65C
S1130D500F9211242F933F934F935F936F937F933D
S1130D608F939F93AF93BF93EF93FF930E943B05A1
S1130D70892B31F0E1ECF0E080818F7D808304C029
S1130D800E948E068093C600FF91EF91BF91AF91B0
S1130D909F918F917F916F915F914F913F912F918F
S1130DA00F900FBE0F901F901895EE0FFF1F059028
S10D0DB0F491E02D0994F894FFCFAC
S1130DBA44657669636549443A200073657420433F
S1130DCA4C4B52433A2E2E2E006661696C6564219F
S1130DDA204572726F72636F64653A00736574209A
S1130DEA546573747061747465726E3A2E2E2E0093
S1130DFA2D2D2D2D2D2D2D2D2D2D2D2D2D2D2D2D15
S1130E0A2D2D2D2D2D00434C4B3A200073657474FF
S1130E1A696E6720566964656F666F726D61743AAC
S1130E2A20004F56373637305F696E69742E2E2E7E
S1130E3A2073746172740048617264776172652008
S1130E4A526573657400696E6974204F7637363754
S1130E5A302E2E2E20646F6E65004665686C6572AE
S1130E6A2062656920496E697469616C6973696590
S1130E7A72756E673A204572726F72436F64653A8F
S1130E8A20004F563736373020636F6E6E656374B1
S1130E9A6564006E6F2064657669636520636F6EAE
S1130EAA6E656374656400534343423A205363682E
S1130EBA72656962656E206665686C6765736368E6
S1130ECA6C6167656E00696E6974205343434220FE
S1130EDA2E2E2E646F6E652100526573657420533D
S1130EEA4343422E2E2E206661696C65642C20458C
S1130EFA72726F72436F64653A20004572726F7240
S1130F0A3A20004665686C657221204572726F72D8
S10B0F1A636F64653A200000D6
S9030000FC
