S01200004F56373637302D4156522E7372656383
S11300000C9434000C9449000C9449000C9449005D
S11300100C9449000C9449000C9449000C94490038
S11300200C9449000C9449000C9449000C94490028
S11300300C9449000C9449000C9449000C94490018
S11300400C9449000C9449000C9449000C94490008
S11300500C9449000C9449000C9449000C944900F8
S11300600C9449000C94490011241FBECFEFD8E032
S1130070DEBFCDBF11E0A0E0B1E0E8E7F1E002C0EF
S113008005900D92A230B107D9F70E944B000C9451
S1130090BA000C940000CF93DF931F92CDB7DEB764
S11300A00E945900BE016F5F7F4F8AE00E94AF003B
S11300B0F9CF89E08093B800E9EBF0E080818C7F90
S11300C08083809100018093BA00089594EA90930C
S11300D0BC00ECEBF0E090819923ECF790910101E6
S11300E0990F9093BB0094E89093BC00ECEBF0E084
S11300F090819923ECF78093BB0084E88093BC0043
S1130100ECEBF0E080818823ECF784E98093BC0079
S11301100895DC0184EA8093BC00ECEBF0E090816C
S11301209923ECF790910101990F91609093BB0092
S113013084E88093BC00ECEBF0E090819923ECF729
S113014084E88093BC00ECEBF0E090819923ECF719
S11301508091BB008C9384E98093BC000895CF9375
S1130160DF93EB010E946600CE010E948900DF91BB
S10B0170CF910895F894FFCF2C
S1050178102150
S9030000FC
