:100000000C9440000C945D000C945D000C945D0019
:100010000C945D000C945D000C945D000C945D00EC
:100020000C945D000C945D000C945D000C945D00DC
:100030000C945D000C945D000C945D000C945D00CC
:100040000C945D000C945D000C94AB050C94D906E7
:100050000C945D000C945D000C945D000C945D00AC
:100060000C945D000C945D008D00F80003010E01FE
:100070001F012F013F0168014A01680151015D0123
:1000800011241FBECFEFD8E0DEBFCDBF11E0A0E04E
:10009000B1E0E2E2FEE002C005900D92A43BB107A0
:1000A000D9F725E0A4EBB1E001C01D92AD3BB2074A
:1000B000E1F70E945F000C940F070C940000CF93AF
:1000C000DF93CDB7DEB729970FB6F894DEBF0FBE2A
:1000D000CDBF8FEF9FEF9A83898380EE91E09C8361
:1000E0008B8380E892E09E838D8383E090E0988705
:1000F0008F8319860E9441050E948E017894E12C1D
:10010000F12C0FEF1FEFE981FA81EC30F10508F0D7
:10011000DFC0EC5CFF4F0C94090780E091E00E9487
:1001200074058AE00E940C048BE00E940C040E947B
:1001300090058BE091E00E94740561E180E00E94EF
:100140002B04D82E811105C089E191E00E9474052D
:1001500009C08FE191E00E9474058D2D0E948805F1
:100160000E94900582E391E00E94740580E10E9464
:100170006804D82E811105C089E191E00E947405C0
:1001800009C08FE191E00E9474058D2D0E948805C1
:100190000E94900586E491E00E9474050E949005FB
:1001A0008CE591E00E94740581E10E940C040E949C
:1001B000900582E691E00E9474058CE00E940C0498
:1001C00082E10E940C048EE30E940C0464E080E251
:1001D0000E94D8048CE00E940C0482E10E940C046E
:1001E0008EE30E940C040E9490051A83098378C054
:1001F0008091B6010E9488058091B6010E940C048E
:100200001A8309836DC06091B5018091B6010E9487
:10021000B4030E9488051A83098362C00E94F50115
:100220000E94EF010E94D0016F8178858D819E81AF
:100230000E9435021A830983E12CF12C51C0809170
:10024000B40190E0982F88272091B501822B9E83DE
:100250008D8384E00E9488051A83098341C08091C0
:10026000B40190E0982F88272091B501822B9C83C0
:100270008B8385E00E9488051A83098331C08091B1
:10028000B50190E098878F8386E00E9488051A83E5
:10029000098326C00E948E010E9488051A83098363
:1002A0001FC06F8178858D819E810E9435028FEFFE
:1002B000E81AF80A1A83098313C04F8158856D81A3
:1002C0007E81C70101970E946B021A83098308C0CF
:1002D0000E94E205892B21F0CE0101960E94FC05C7
:1002E0008FE19EE40197F1F700C000000CCF209849
:1002F0002198229823985498559856985798399849
:1003000038983A9A3B9A249A529A259A3D9A3C9A5E
:10031000429A439A2C985A982A9A08950E947701F3
:100320002D982FEF81EE94E0215080409040E1F72E
:1003300000C000002D9A8FE99FE00197F1F700C0FF
:1003400000008FE891E00197F1F700C000004398AA
:1003500042988FE99FE00197F1F700C000005A9A98
:100360008FE99FE00197F1F700C000005A988FE9EC
:100370009FE00197F1F700C000005A9A8FE99FE0D3
:100380000197F1F700C000005A988FE99FE00197AC
:10039000F1F700C000000E94E70381118C59089515
:1003A00042985A9A8FE99FE00197F1F700C0000048
:1003B0005A988FE99FE00197F1F700C000005A9A20
:1003C0008FE99FE00197F1F700C000005A988FE98C
:1003D0009FE00197F1F700C00000429A089543980A
:1003E00080E28A95F1F7439A08952C98319BFECFCD
:1003F0000E94EF013199FECF2C9A319BFECF2C98B1
:100400002FEF89EF90E0215080409040E1F700C04D
:1004100000000E94EF01089563B1E3B153B133B11D
:1004200029B199B1F9B179B1E27054705E2B617064
:10043000562B3870432F452B2071322F342B90725E
:10044000292F232B9F2F9074892F822B272F2078E1
:1004500030E0220F232F221F330B33273695322F04
:10046000222737952795822B0895CF92DF92EF921E
:10047000FF920F931F93CF93DF936C018B0118169C
:100480001906A4F019C0C0E0D0E00E940C020E943E
:1004900088055A9A5A9821960C171D07B1F78FEFC5
:1004A000E81AF80ACE14DF0419F406C0E12CF12C86
:1004B0001016110644F3F3CF8DE00E9488058AE000
:1004C0000E948805DF91CF911F910F91FF90EF90CF
:1004D000DF90CF900895EF92FF920F931F93CF93E9
:1004E000DF937C018B01EA010E94D00182E0E816D3
:1004F000F1043CF52CC080E090E05A9AEFE9FFE06F
:100500003197F1F700C000005A98EFE9FFE031970A
:10051000F1F700C000000196C817D90771F72F5FE7
:100520003F4F0217130719F406C020E030E01C16F5
:100530001D060CF3F4CF4F5F5F4FE416F50619F478
:1005400006C041E050E0101611067CF3F4CFBE0166
:10055000C8010E943502DF91CF911F910F91FF904A
:10056000EF900895449A8FE193E00197F1F700C06E
:100570000000459A8FE193E00197F1F700C0000079
:1005800044988FE193E00197F1F700C0000045988F
:100590000895459844988FE193E00197F1F700C0E2
:1005A0000000459A8FE193E00197F1F700C0000049
:1005B000449A8FE193E00197F1F700C0000008959D
:1005C00027E030E090E0AC01022E02C0559547953F
:1005D0000A94E2F740FF02C0449A01C04498EFE158
:1005E000F3E03197F1F700C00000459AEFE1F3E046
:1005F0003197F1F700C000004598EFE1F3E0319743
:10060000F1F700C0000021503109E8F644983C9809
:100610008FE193E00197F1F700C00000459AEFE108
:10062000F3E03197F1F700C00000349B08C088E781
:1006300091E00E9474050E94900580E001C081E075
:100640004598EFE1F3E03197F1F700C000003C9AE4
:100650000895FC013C98449898E0AFE1B3E011970D
:10066000F1F700C00000459A349B05C02081220F9D
:100670002160208303C08081880F8083AFE1B3E0D5
:100680001197F1F700C000004598AFE1B3E0119772
:10069000F1F700C00000915001F73C9A449A8FE1B5
:1006A00093E00197F1F700C00000459AAFE1B3E095
:1006B0001197F1F700C0000045988FE193E0019792
:1006C000F1F700C00000449881E008950F931F9354
:1006D000CF93C82F8B010E94B20282E40E94E002F5
:1006E000811104C00E94C90281E03AC08FE193E009
:1006F0000197F1F700C000008C2F0E94E0028111E9
:1007000004C00E94C90282E02BC08FE193E00197F0
:10071000F1F700C000000E94C9028FE193E0019749
:10072000F1F700C000000E94B20283E40E94E002E0
:10073000811104C00E94C90283E012C08FE193E0DE
:100740000197F1F700C00000C8010E942903811140
:1007500004C00E94C90284E003C00E94C90280E074
:10076000CF911F910F910895CF93DF93C82FD62F6C
:100770000E94B20282E40E94E002811104C00E9441
:10078000C90285E021C08FE193E00197F1F700C035
:1007900000008C2F0E94E002811104C00E94C90257
:1007A00086E012C08FE193E00197F1F700C00000EE
:1007B0008D2F0E94E002811104C00E94C90287E0CF
:1007C00003C00E94C90280E0DF91CF910895CF93CA
:1007D000DF931F92CDB7DEB73C9A3D9A459A449A73
:1007E000BE016F5F7F4F82E10E94660360E882E195
:1007F0000E94B40381110BC02FEF89E698E12150CC
:1008000080409040E1F700C0000080E001C0865FBA
:100810000F90DF91CF9108951F93CF93DF931F9295
:10082000CDB7DEB71982BE016F5F7F4F0E946603AE
:10083000182F811104C089810E94880507C087E9AB
:1008400091E00E947405812F0E9488050F90DF912E
:10085000CF911F9108950F931F93CF93DF931F9212
:10086000CDB7DEB7182F062FBE016F5F7F4F802FE9
:100870000E946603811126C081E090E002C0880FCB
:10088000991F1A95E2F71981182B612F802F0E946A
:10089000B403811117C0BE016F5F7F4F802F0E948C
:1008A000660381110FC021E030E08981882311F0B7
:1008B00020E030E0812F90E02817390711F480E123
:1008C00001C080E00F90DF91CF911F910F910895AB
:1008D0001F93CF93DF931F92CDB7DEB7182F1982E6
:1008E000BE016F5F7F4F80E70E94660311FB882780
:1008F00080F9698180FB67F9698380E70E94B4030E
:10090000BE016F5F7F4F81E70E946603698110FB24
:1009100067F9698381E70E94B40362E181E00E9484
:100920002B0462E483E00E942B040F90DF91CF91AF
:100930001F9108950F931F93CF93DF931F92CDB70D
:10094000DEB7082F162FBE016F5F7F4F812F0E94E9
:100950006603811127C061E070E002C0660F771F57
:100960000A95E2F7609509810623602F812F0E9486
:10097000B403811117C0BE016F5F7F4F812F0E94AA
:10098000660381110FC081E090E02981222311F0DC
:1009900080E090E0602F70E08617970711F481E106
:1009A00001C080E00F90DF91CF911F910F910895CA
:1009B000CF93DF9300D01F92CDB7DEB7862B89830C
:1009C0001A826CE083E00E942B048A83882311F052
:1009D0008A8151C01B82BE016D5F7F4F8EE30E94F2
:1009E00066038A83882311F08A8145C08B818860E1
:1009F0008B836B818EE30E94B4038A83882311F07A
:100A00008A8139C01B82BE016D5F7F4F82E10E94E7
:100A100066038A83882349F08FE991E00E94740578
:100A20008A810E9488058A8126C089819B81826C87
:100A300089238B8389819B818D73892B8B836B8128
:100A400082E10E94B4038A83882311F08A8113C053
:100A500060E485E00E949A048A83882311F08A81E9
:100A60000AC060E484E00E942B048A83882311F08A
:100A70008A8101C08A810F900F900F90DF91CF91F2
:100A80000895519A50981092C5001092C400E0EC5D
:100A9000F0E082E080838081808388E98093C100D8
:100AA0008EE08093C20008959091B8039F5F2091DB
:100AB000B703921759F0A8EBB3E0EC91F0E0E954DA
:100AC000FE4F80839C9381E090E0089580E090E069
:100AD00008953091B7032091B80381E090E0321778
:100AE00011F080E090E00895CF93DF93EC018881CE
:100AF000882331F021960E94540589918111FBCF02
:100B0000E1ECF0E0808180628083DF91CF910895F5
:100B10000E945405E1ECF0E08081806280830895BA
:100B20008DE00E9488058AE00E9488050895E09182
:100B3000BA0591E09E0F2091B905921749F0F0E0B7
:100B4000E754FC4F80839093BA0581E090E00895CC
:100B500080E090E008951F920F920FB60F9211243B
:100B60002F933F934F935F936F937F938F939F93B5
:100B7000AF93BF93EF93FF938091C6000E949705B8
:100B8000FF91EF91BF91AF919F918F917F916F9165
:100B90005F914F913F912F910F900FBE0F901F903B
:100BA00018959091B9058091BA05981749F0E92FE9
:100BB000F0E0E754FC4F80819F5F9093B905089562
:100BC00080E008958091BA0590E0FC013297F170C1
:100BD000E754FC4F20812D3061F4FC013197F17016
:100BE000E754FC4F81E090E020812A3021F080E042
:100BF000089580E090E00895EF92FF920F931F9385
:100C0000CF93DF93CDB7DEB72E970FB6F894DEBF44
:100C10000FBECDBF7C010E94E205009709F4A3C07E
:100C2000FE0131968AE0DF011D928A95E9F71E8662
:100C30001D861C861B8601E010E00E94D105EB8515
:100C4000FC8521E030E02C0F3D1FE20FF31F808375
:100C50008B859C8501969C878B878B859C850297CD
:100C60001CF41E870D8702C01E861D86EB85FC8541
:100C70008D859E85A1E0B0E0AC0FBD1FEA0FFB1F84
:100C8000E80FF91F329780818D3039F4EB85FC85B0
:100C9000EC0FFD1F80818A3021F08B859C850A979F
:100CA00064F28981813049F49A819093B60121E000
:100CB00030E0F7013183208316C0823061F49A81DD
:100CC0009093B6019B819093B50122E030E0D7016B
:100CD0002D933C9316C0833031F423E030E0F701CC
:100CE000318320831CC0843061F49A819093B501D4
:100CF0009B819093B40124E030E0D7012D933C9385
:100D000019C0853061F49A819093B5019B819093CD
:100D1000B40125E030E0F7013183208313C0863031
:100D200049F49A819093B50126E030E0D7012D93E4
:100D30003C9310C0883031F488E090E0F701918353
:100D400080830FC08A3031F48AE090E0D7018D9320
:100D50009C9307C08B3029F48BE090E0F7019183DE
:100D6000808381E090E02E960FB6F894DEBF0FBE30
:100D7000CDBFDF91CF911F910F91FF90EF9008951C
:100D80009091B7038091B803981789F0A7EBB3E06F
:100D9000EC91F0E0E954FE4F8081282F30E0309351
:100DA000BC052093BB059C919F5F9C93089580E0B8
:100DB00008951F920F920FB60F9211242F933F9315
:100DC0004F935F936F937F938F939F93AF93BF9353
:100DD000EF93FF930E946905892B31F0E1ECF0E07D
:100DE00080818F7D808304C00E94C0068093C600EE
:100DF000FF91EF91BF91AF919F918F917F916F91F3
:100E00005F914F913F912F910F900FBE0F901F90C8
:100E10001895EE0FFF1F0590F491E02D0994F894BA
:020E2000FFCF02
:100E220044657669636549443A20007365742043DA
:100E32004C4B52433A2E2E2E00646F6E6521006693
:100E420061696C656421204572726F72636F6465BB
:100E52003A007365742054657374706174746572BA
:100E62006E3A2E2E2E002D2D2D2D2D2D2D2D2D2D8C
:100E72002D2D2D2D2D2D2D2D2D2D2D00434C4B3A6D
:100E8200200073657474696E6720566964656F66C5
:100E92006F726D61743A2000534343423A205363A8
:100EA2006872656962656E206665686C6765736302
:100EB200686C6167656E004572726F723A20004617
:100EC20065686C657221204572726F72636F64652A
:040ED2003A200000C2
:00000001FF
