:100000000C9440000C945D000C945D000C945D0019
:100010000C945D000C945D000C945D000C945D00EC
:100020000C945D000C945D000C945D000C945D00DC
:100030000C945D000C945D000C945D000C945D00CC
:100040000C945D000C945D000C9478040C94AE0547
:100050000C945D000C945D000C945D000C945D00AC
:100060000C945D000C945D008E009900A400B30018
:10007000C300D3000B01DE000B01E500F100FC0022
:1000800011241FBECFEFD8E0DEBFCDBF11E0A0E04E
:10009000B1E0ECECFBE002C005900D92AC33B1078F
:1000A000D9F725E0ACE3B1E001C01D92A534B20759
:1000B000E1F70E945F000C94E4050C940000CF93DC
:1000C000DF93CDB7DEB729970FB6F894DEBF0FBE2A
:1000D000CDBF8FEF9FEF9A8389838BE391E09C8361
:1000E0008B8380EF90E09E838D8382E090E0988701
:1000F0008F8319860E940E040E9431017894E12CAE
:10010000F12C0FEF1FEFE981FA813197EC30F10507
:1001100008F081C0EC5CFF4F0C94DE0580913E013D
:100120000E94550480913E010E94EF031A830983C7
:100130007AC060913D0180913E010E9497030E9428
:1001400055041A8309836FC00E949A010E947301AB
:100150006F8178858D819E810E94CF011A830983EA
:10016000E12CF12C60C080913C0190E0982F882711
:1001700020913D01822B9E838D8384E00E94550453
:100180001A83098350C080913C0190E0982F882702
:1001900020913D01822B9C838B8385E00E94550436
:1001A0001A83098340C080913D0190E098878F8336
:1001B00086E00E9455041A83098335C00E943101EC
:1001C0000E9455041A8309832EC06F8178858D8122
:1001D0009E810E94CF018FEFE81AF80A1A830983E3
:1001E00022C04F8158856D817E81C70101970E9491
:1001F00005021A83098317C00E949A010E947301A5
:100200004F8158856B817C818D819E810E944C023B
:100210001A83098308C00E94AF04892B21F0CE0104
:1002200001960E94C9048FE19EE40197F1F700C096
:10023000000069CF209821982298239854985598C7
:1002400056985798399838983A9A3B9A249A529ADD
:10025000259A3D9A3C9A429A439A2C985A982A9AFF
:1002600008950E941A012D982FEF81EE94E02150FD
:1002700080409040E1F700C000002D9A8FE99FE098
:100280000197F1F700C000008FE891E00197F1F7C6
:1002900000C00000439842988FE99FE00197F1F772
:1002A00000C000005A9A8FE99FE00197F1F700C063
:1002B00000005A988FE99FE00197F1F700C0000015
:1002C0005A9A8FE99FE00197F1F700C000005A9811
:1002D0008FE99FE00197F1F700C000000E94CA0378
:1002E00081118C590895429A5A9A8AE68A95F1F7B3
:1002F00000C05A985A9A42985A988AE68A95F1F715
:1003000000C05A9A5A988AE68A95F1F700C05A9A1C
:100310005A98429A8AE68A95F1F700C05A9A5A98F2
:10032000089543988FE99FE00197F1F700C000001E
:10033000439A08952C98319BFECF0E9491013199E8
:10034000FECF2C9A319BFECF2C98089563B1E3B178
:1003500053B133B129B199B1F9B179B1E2705470A7
:100360005E2B6170562B3870432F452B2071322F36
:10037000342B9072292F232B9F2F9074892F822B3F
:10038000272F207830E0220F232F221F330B332713
:100390003695322F222737952795822B0895CF92B5
:1003A000DF92EF92FF920F931F93CF93DF936C0135
:1003B0008B0118161906A4F019C0C0E0D0E00E9405
:1003C000A6010E9455045A9A5A9821960C171D07A7
:1003D000B1F78FEFE81AF80ACE14DF0419F406C05B
:1003E000E12CF12C1016110644F3F3CF8DE00E949E
:1003F00055048AE00E945504DF91CF911F910F911F
:10040000FF90EF90DF90CF900895EF92FF920F93BF
:100410001F93CF93DF937C018B01EA010E9473014C
:1004200082E0E816F1043CF52CC080E090E05A9A96
:10043000EFE9FFE03197F1F700C000005A98EFE9CB
:10044000FFE03197F1F700C000000196C817D90707
:1004500071F72F5F3F4F0217130719F406C020E012
:1004600030E01C161D060CF3F4CF4F5F5F4FE4160F
:10047000F50619F406C041E050E0101611067CF3B1
:10048000F4CFBE01C8010E94CF01DF91CF911F912F
:100490000F91FF90EF9008958F929F92AF92BF922D
:1004A000CF92DF92EF92FF920F931F93CF93DF9340
:1004B0007C015B01EA010E9473011A141B0414F110
:1004C00027C0812C912C5A9A0E94A6010E945504A3
:1004D0005A988FEF881A980AC815D905A1F70F5FA7
:1004E0001F4FE016F10619F406C000E010E01C16DC
:1004F0001D063CF3F4CF8FEFC81AD80AAC14BD0424
:1005000019F406C0C12CD12C1E141F0474F3F3CFB0
:10051000DF91CF911F910F91FF90EF90DF90CF90DF
:10052000BF90AF909F908F900895449A8FE193E091
:100530000197F1F700C00000459A8FE193E0019721
:10054000F1F700C0000044988FE193E00197F1F7C4
:1005500000C0000045980895459844988FE193E0C5
:100560000197F1F700C00000459A8FE193E00197F1
:10057000F1F700C00000449A8FE193E00197F1F792
:1005800000C00000089527E030E090E0AC01022EAA
:1005900002C0559547950A94E2F740FF02C0449A7D
:1005A00001C04498EFE1F3E03197F1F700C000009B
:1005B000459AEFE1F3E03197F1F700C0000045986C
:1005C000EFE1F3E03197F1F700C00000215031096D
:1005D000E8F644983C988FE193E00197F1F700C06A
:1005E0000000459AEFE1F3E03197F1F700C0000019
:1005F000349B08C080E091E00E9441040E945D04A9
:1006000080E001C081E04598EFE1F3E03197F1F738
:1006100000C000003C9A0895FC013C98449898E082
:10062000AFE1B3E01197F1F700C00000459A349BA9
:1006300005C02081220F2160208303C08081880FA4
:100640008083AFE1B3E01197F1F700C00000459857
:10065000AFE1B3E01197F1F700C00000915001F74E
:100660003C9A449A8FE193E00197F1F700C00000B3
:10067000459AAFE1B3E01197F1F700C0000045984B
:100680008FE193E00197F1F700C00000449881E00A
:1006900008950F931F93CF93C82F8B010E9495024B
:1006A00082E40E94C302811104C00E94AC0281E076
:1006B0003AC08FE193E00197F1F700C000008C2F62
:1006C0000E94C302811104C00E94AC0282E02BC0D0
:1006D0008FE193E00197F1F700C000000E94AC02A7
:1006E0008FE193E00197F1F700C000000E949502AE
:1006F00083E40E94C302811104C00E94AC0283E023
:1007000012C08FE193E00197F1F700C00000C8012B
:100710000E940C03811104C00E94AC0284E003C05B
:100720000E94AC0280E0CF911F910F910895CF936A
:10073000DF93C82FD62F0E94950282E40E94C30245
:10074000811104C00E94AC0285E021C08FE193E0DA
:100750000197F1F700C000008C2F0E94C3028111A5
:1007600004C00E94AC0286E012C08FE193E00197C2
:10077000F1F700C000008D2F0E94C302811104C058
:100780000E94AC0287E003C00E94AC0280E0DF91CF
:10079000CF910895CF93DF931F92CDB7DEB73C9AE8
:1007A0003D9A459A449ABE016F5F7F4F82E10E9455
:1007B000490360E882E10E94970381110BC02FEF8B
:1007C00089E698E1215080409040E1F700C00000A8
:1007D00080E001C0865F0F90DF91CF9108951F9355
:1007E000CF93DF931F92CDB7DEB71982BE016F5F43
:1007F0007F4F0E944903182F811104C089810E94F4
:10080000550407C08FE191E00E944104812F0E94AE
:1008100055040F90DF91CF911F910895519A5098F0
:100820001092C5001092C400E0ECF0E082E08083FA
:100830008081808388E98093C1008EE08093C2002C
:100840000895909140039F5F20913F03921759F0C4
:10085000A0E4B3E0EC91F0E0E15CFE4F80839C9378
:1008600081E090E0089580E090E0089530913F03AA
:100870002091400381E090E0321711F080E090E099
:100880000895CF93DF93EC018881882331F021967E
:100890000E94210489918111FBCFE1ECF0E080817D
:1008A00080628083DF91CF9108950E942104E1EC62
:1008B000F0E080818062808308958DE00E9455047D
:1008C0008AE00E9455040895E091420591E09E0F50
:1008D00020914105921749F0F0E0EF5BFC4F8083D7
:1008E0009093420581E090E0089580E090E00895C3
:1008F0001F920F920FB60F9211242F933F934F9395
:100900005F936F937F938F939F93AF93BF93EF9377
:10091000FF938091C6000E946404FF91EF91BF9104
:10092000AF919F918F917F916F915F914F913F9187
:100930002F910F900FBE0F901F9018959091410529
:1009400080914205981749F0E92FF0E0EF5BFC4FEA
:1009500080819F5F90934105089580E00895809184
:10096000420590E0FC013297F170EF5BFC4F208173
:100970002D3061F4FC013197F170EF5BFC4F81E0A9
:1009800090E020812A3021F080E0089580E090E01E
:100990000895EF92FF920F931F93CF93DF93CDB7FC
:1009A000DEB72E970FB6F894DEBF0FBECDBF7C0129
:1009B0000E94AF04009709F4ABC0FE0131968AE0B3
:1009C000DF011D928A95E9F71E861D861C861B860F
:1009D00001E010E00E949E04EB85FC8521E030E000
:1009E0002C0F3D1FE20FF31F80838B859C850196A2
:1009F0009C878B878B859C8502971CF41E870D87AF
:100A000002C01E861D86EB85FC858D859E85A1E036
:100A1000B0E0AC0FBD1FEA0FFB1FE80FF91F3297C4
:100A200080818D3039F4EB85FC85EC0FFD1F8081D2
:100A30008A3021F08B859C850A9764F28981813008
:100A400049F49A8190933E0121E030E0F70131832F
:100A5000208316C0823061F49A8190933E019B817D
:100A600090933D0122E030E0D7012D933C9316C0D6
:100A7000833031F423E030E0F701318320831CC060
:100A8000843061F49A8190933D019B8190933C0165
:100A900024E030E0D7012D933C9319C0853061F4F8
:100AA0009A8190933D019B8190933C0125E030E039
:100AB000F7013183208313C0863049F49A819093E3
:100AC0003D0126E030E0D7012D933C9310C08830E3
:100AD00031F428E030E0F7013183208310C08A3000
:100AE00031F48AE090E0D7018D939C930FC08B3056
:100AF00031F48BE090E0F7019183808307C08C3064
:100B000029F48CE090E0D7018D939C9381E090E0F4
:100B10002E960FB6F894DEBF0FBECDBFDF91CF91FA
:100B20001F910F91FF90EF90089590913F03809156
:100B30004003981789F0AFE3B3E0EC91F0E0E15C9B
:100B4000FE4F8081282F30E03093440520934305E9
:100B50009C919F5F9C93089580E008951F920F924F
:100B60000FB60F9211242F933F934F935F936F9380
:100B70007F938F939F93AF93BF93EF93FF930E94C5
:100B80003604892B31F0E1ECF0E080818F7D8083A9
:100B900004C00E9495058093C600FF91EF91BF911C
:100BA000AF919F918F917F916F915F914F913F9105
:100BB0002F910F900FBE0F901F901895EE0FFF1FF3
:0C0BC0000590F491E02D0994F894FFCF0B
:100BCC00534343423A2053636872656962656E20F1
:100BDC006665686C67657363686C6167656E004514
:100BEC0072726F723A20004665686C6572212045FE
:0C0BFC0072726F72636F64653A20000033
:00000001FF
