:100000000C9441000C945E000C945E000C945E0015
:100010000C945E000C945E000C945E000C945E00E8
:100020000C945E000C945E000C945E000C945E00D8
:100030000C945E000C945E000C945E000C945E00C8
:100040000C945E000C945E000C94FF050C94350734
:100050000C945E000C945E000C945E000C945E00A8
:100060000C945E000C945E008E00F90004010F01F8
:1000700020013001400178014B01780152015E01FD
:10008000690111241FBECFEFD8E0DEBFCDBF11E064
:10009000A0E0B1E0EAEDFEE002C005900D92A43BC5
:1000A000B107D9F725E0A4EBB1E001C01D92AD3B4B
:1000B000B207E1F70E9460000C946B070C940000FB
:1000C000CF93DF93CDB7DEB729970FB6F894DEBF95
:1000D0000FBECDBF8FEF9FEF9A83898380EE91E0B3
:1000E0009C838B8380E892E09E838D8383E090E005
:1000F00098878F8319860E9495050E949E017894A7
:10010000E12CF12C0FEF1FEFE981FA81ED30F105C1
:1001100008F0EEC0EC5CFF4F0C94650780E091E0C6
:100120000E94C8058AE00E9460048BE00E9460047F
:100130000E94E4058BE091E00E94C80561E180E047
:100140000E947F04D82E811105C089E191E00E94B0
:10015000C80509C08FE191E00E94C8058D2D0E945D
:10016000DC050E94E40582E391E00E94C80580E17D
:100170000E94BC04D82E811105C089E191E00E9443
:10018000C80509C08FE191E00E94C8058D2D0E942D
:10019000DC050E94E40586E491E00E94C8050E9407
:1001A000E4058CE591E00E94C80581E10E946004AD
:1001B0000E94E40582E691E00E94C8058CE00E945E
:1001C000600482E10E9460048EE30E94600464E0A7
:1001D00080E20E942C058CE00E94600482E10E9473
:1001E00060048EE30E9460040E94E4051A83098380
:1001F00087C08091B6010E94DC058091B6010E9403
:1002000060041A8309837CC06091B5018091B601B6
:100210000E9408040E94DC051A83098371C00E94B1
:1002200000020E94F7010E94E0016F8178858D81B4
:100230009E810E9440021A830983E12CF12C60C048
:100240008091B40190E0982F88272091B501822BEE
:100250009E838D8384E00E94DC051A83098350C04D
:100260008091B40190E0982F88272091B501822BCE
:100270009C838B8385E00E94DC051A83098340C040
:100280008091B50190E098878F8386E00E94DC051D
:100290001A83098335C00E949E010E94DC051A83DF
:1002A00009832EC06F8178858D819E810E944002D6
:1002B0008FEFE81AF80A1A83098322C04F81588504
:1002C0006D817E81C70101970E9476021A8309839E
:1002D00017C00E9400020E94E0014F8158856B8187
:1002E0007C818D819E810E94BD021A83098308C092
:1002F0000E943606892B21F0CE0101960E945006FD
:100300008FE19EE40197F1F700C00000FDCE209838
:100310002198229823985498559856985798399828
:1003200038983A9A3B9A249A529A259A3D9A3C9A3E
:10033000429A439A2C985A982A9A08950E948701C3
:100340002D982FEF81EE94E0215080409040E1F70E
:1003500000C000002D9A8FE99FE00197F1F700C0DF
:1003600000008FE891E00197F1F700C0000043988A
:1003700042988FE99FE00197F1F700C000005A9A78
:100380008FE99FE00197F1F700C000005A988FE9CC
:100390009FE00197F1F700C000005A9A8FE99FE0B3
:1003A0000197F1F700C000005A988FE99FE001978C
:1003B000F1F700C000000E943B0481118C590895A0
:1003C00042985A9A8AE68A95F1F700C05A988AE6C6
:1003D0008A95F1F700C05A9A8AE68A95F1F700C02B
:1003E0005A988AE68A95F1F700C0429A0895439890
:1003F0008FE99FE00197F1F700C00000439A08954C
:100400002C98319BFECF0E94F7013199FECF2C9A98
:10041000319BFECF2C982FEF89EF90E02150804048
:100420009040E1F700C000000E94F701089563B119
:10043000E3B153B133B129B199B1F9B179B1E270F6
:1004400054705E2B6170562B3870432F452B2071F2
:10045000322F342B9072292F232B9F2F9074892FAA
:10046000822B272F207830E0220F232F221F330BDF
:1004700033273695322F222737952795822B0895DB
:10048000CF92DF92EF92FF920F931F93CF93DF9360
:100490006C018B0118161906A4F019C0C0E0D0E059
:1004A0000E9417020E94DC055A9A5A9821960C174E
:1004B0001D07B1F78FEFE81AF80ACE14DF0419F41C
:1004C00006C0E12CF12C1016110644F3F3CF8DE099
:1004D0000E94DC058AE00E94DC05DF91CF911F912C
:1004E0000F91FF90EF90DF90CF900895EF92FF92E1
:1004F0000F931F93CF93DF937C018B01EA010E943E
:10050000E00182E0E816F1043CF52CC080E090E0C8
:100510005A9AEFE9FFE03197F1F700C000005A98CE
:10052000EFE9FFE03197F1F700C000000196C8172E
:10053000D90771F72F5F3F4F0217130719F406C051
:1005400020E030E01C161D060CF3F4CF4F5F5F4F28
:10055000E416F50619F406C041E050E01016110645
:100560007CF3F4CFBE01C8010E944002DF91CF911D
:100570001F910F91FF90EF9008958F929F92AF92ED
:10058000BF92CF92DF92EF92FF920F931F93CF9380
:10059000DF937C015B01EA010E94E0011A141B0455
:1005A00014F127C0812C912C5A9A0E9417020E94A4
:1005B000DC055A988FEF881A980AC815D905A1F753
:1005C0000F5F1F4FE016F10619F406C000E010E0BF
:1005D0001C161D063CF3F4CF8FEFC81AD80AAC14D2
:1005E000BD0419F406C0C12CD12C1E141F0474F3D1
:1005F000F3CFDF91CF911F910F91FF90EF90DF909C
:10060000CF90BF90AF909F908F900895449A8FE1C4
:1006100093E00197F1F700C00000459A8FE193E065
:100620000197F1F700C0000044988FE193E0019733
:10063000F1F700C0000045980895459844988FE16F
:1006400093E00197F1F700C00000459A8FE193E035
:100650000197F1F700C00000449A8FE193E0019701
:10066000F1F700C00000089527E030E090E0AC0111
:10067000022E02C0559547950A94E2F740FF02C04A
:10068000449A01C04498EFE1F3E03197F1F700C0DC
:100690000000459AEFE1F3E03197F1F700C0000068
:1006A0004598EFE1F3E03197F1F700C000002150E9
:1006B0003109E8F644983C988FE193E00197F1F70F
:1006C00000C00000459AEFE1F3E03197F1F700C078
:1006D0000000349B08C088E791E00E94C8050E9492
:1006E000E40580E001C081E04598EFE1F3E0319757
:1006F000F1F700C000003C9A0895FC013C98449832
:1007000098E0AFE1B3E01197F1F700C00000459A1F
:10071000349B05C02081220F2160208303C080818B
:10072000880F8083AFE1B3E01197F1F700C00000BC
:100730004598AFE1B3E01197F1F700C00000915088
:1007400001F73C9A449A8FE193E00197F1F700C0DA
:100750000000459AAFE1B3E01197F1F700C0000047
:1007600045988FE193E00197F1F700C000004498AD
:1007700081E008950F931F93CF93C82F8B010E94A0
:10078000060382E40E943403811104C00E941D0309
:1007900081E03AC08FE193E00197F1F700C00000DB
:1007A0008C2F0E943403811104C00E941D0382E03B
:1007B0002BC08FE193E00197F1F700C000000E9489
:1007C0001D038FE193E00197F1F700C000000E9444
:1007D000060383E40E943403811104C00E941D03B8
:1007E00083E012C08FE193E00197F1F700C00000B1
:1007F000C8010E947D03811104C00E941D0384E092
:1008000003C00E941D0380E0CF911F910F910895B6
:10081000CF93DF93C82FD62F0E94060382E40E9455
:100820003403811104C00E941D0385E021C08FE1C3
:1008300093E00197F1F700C000008C2F0E94340371
:10084000811104C00E941D0386E012C08FE193E075
:100850000197F1F700C000008D2F0E943403811131
:1008600004C00E941D0387E003C00E941D0380E0B6
:10087000DF91CF910895CF93DF931F92CDB7DEB76D
:100880003C9A3D9A459A449ABE016F5F7F4F82E140
:100890000E94BA0360E882E10E94080481110BC043
:1008A0002FEF89E698E1215080409040E1F700C0A9
:1008B000000080E001C0865F0F90DF91CF91089526
:1008C0001F93CF93DF931F92CDB7DEB71982BE017E
:1008D0006F5F7F4F0E94BA03182F811104C0898176
:1008E0000E94DC0507C087E991E00E94C805812FBE
:1008F0000E94DC050F90DF91CF911F9108950F9317
:100900001F93CF93DF931F92CDB7DEB7182F062F1B
:10091000BE016F5F7F4F802F0E94BA03811126C0F6
:1009200081E090E002C0880F991F1A95E2F71981C3
:10093000182B612F802F0E940804811117C0BE015F
:100940006F5F7F4F802F0E94BA0381110FC021E09B
:1009500030E08981882311F020E030E0812F90E0A1
:100960002817390711F480E101C080E00F90DF9172
:10097000CF911F910F9108951F93CF93DF931F92F3
:10098000CDB7DEB7182F1982BE016F5F7F4F80E7AA
:100990000E94BA0311FB882780F9698180FB67F9FF
:1009A000698380E70E940804BE016F5F7F4F81E783
:1009B0000E94BA03698110FB67F9698381E70E948D
:1009C000080462E181E00E947F0462E483E00E9407
:1009D0007F040F90DF91CF911F9108950F931F9384
:1009E000CF93DF931F92CDB7DEB7082F162FBE012E
:1009F0006F5F7F4F812F0E94BA03811127C061E092
:100A000070E002C0660F771F0A95E2F760950981D2
:100A10000623602F812F0E940804811117C0BE0198
:100A20006F5F7F4F812F0E94BA0381110FC081E059
:100A300090E02981222311F080E090E0602F70E0A7
:100A40008617970711F481E101C080E00F90DF91D4
:100A5000CF911F910F910895CF93DF9300D01F92F4
:100A6000CDB7DEB7862B89831A826CE083E00E94C3
:100A70007F048A83882311F08A8151C01B82BE01C2
:100A80006D5F7F4F8EE30E94BA038A83882311F043
:100A90008A8145C08B8188608B836B818EE30E9445
:100AA00008048A83882311F08A8139C01B82BE0121
:100AB0006D5F7F4F82E10E94BA038A83882349F0E9
:100AC0008FE991E00E94C8058A810E94DC058A8135
:100AD00026C089819B81826C89238B8389819B813C
:100AE0008D73892B8B836B8182E10E9408048A833A
:100AF000882311F08A8113C060E485E00E94EE042F
:100B00008A83882311F08A810AC060E484E00E940D
:100B10007F048A83882311F08A8101C08A810F9023
:100B20000F900F90DF91CF910895519A50981092A5
:100B3000C5001092C400E0ECF0E082E08083808188
:100B4000808388E98093C1008EE08093C20008957D
:100B50009091B8039F5F2091B703921759F0A8EBCB
:100B6000B3E0EC91F0E0E954FE4F80839C9381E088
:100B700090E0089580E090E008953091B7032091CF
:100B8000B80381E090E0321711F080E090E0089522
:100B9000CF93DF93EC018881882331F021960E9466
:100BA000A80589918111FBCFE1ECF0E080818062A2
:100BB0008083DF91CF9108950E94A805E1ECF0E0D9
:100BC00080818062808308958DE00E94DC058AE048
:100BD0000E94DC050895E091BA0591E09E0F2091F6
:100BE000B905921749F0F0E0E754FC4F80839093E9
:100BF000BA0581E090E0089580E090E008951F92AA
:100C00000F920FB60F9211242F933F934F935F9340
:100C10006F937F938F939F93AF93BF93EF93FF93C4
:100C20008091C6000E94EB05FF91EF91BF91AF91BB
:100C30009F918F917F916F915F914F913F912F91F4
:100C40000F900FBE0F901F9018959091B90580914D
:100C5000BA05981749F0E92FF0E0E754FC4F80817E
:100C60009F5F9093B905089580E008958091BA053B
:100C700090E0FC013297F170E754FC4F20812D3059
:100C800061F4FC013197F170E754FC4F81E090E092
:100C900020812A3021F080E0089580E090E00895DE
:100CA000EF92FF920F931F93CF93DF93CDB7DEB7F1
:100CB0002E970FB6F894DEBF0FBECDBF7C010E9409
:100CC0003606009709F4ABC0FE0131968AE0DF01D9
:100CD0001D928A95E9F71E861D861C861B8601E0FB
:100CE00010E00E942506EB85FC8521E030E02C0F0A
:100CF0003D1FE20FF31F80838B859C8501969C87A7
:100D00008B878B859C8502971CF41E870D8702C0FC
:100D10001E861D86EB85FC858D859E85A1E0B0E055
:100D2000AC0FBD1FEA0FFB1FE80FF91F3297808140
:100D30008D3039F4EB85FC85EC0FFD1F80818A3006
:100D400021F08B859C850A9764F28981813049F472
:100D50009A819093B60121E030E0F701318320833E
:100D600016C0823061F49A819093B6019B81909372
:100D7000B50122E030E0D7012D933C9316C08330BB
:100D800031F423E030E0F701318320831CC084304C
:100D900061F49A819093B5019B819093B40124E012
:100DA00030E0D7012D933C9319C0853061F49A81CE
:100DB0009093B5019B819093B40125E030E0F70159
:100DC0003183208313C0863049F49A819093B50112
:100DD00026E030E0D7012D933C9310C0883031F4E9
:100DE00028E030E0F7013183208310C08A3031F4ED
:100DF0008AE090E0D7018D939C930FC08B3031F443
:100E00008BE090E0F7019183808307C08C3029F458
:100E10008CE090E0D7018D939C9381E090E02E963A
:100E20000FB6F894DEBF0FBECDBFDF91CF911F91FB
:100E30000F91FF90EF9008959091B7038091B803C0
:100E4000981789F0A7EBB3E0EC91F0E0E954FE4F7E
:100E50008081282F30E03093BC052093BB059C9106
:100E60009F5F9C93089580E008951F920F920FB6A4
:100E70000F9211242F933F934F935F936F937F9320
:100E80008F939F93AF93BF93EF93FF930E94BD0502
:100E9000892B31F0E1ECF0E080818F7D808304C00C
:100EA0000E941C078093C600FF91EF91BF91AF9104
:100EB0009F918F917F916F915F914F913F912F9172
:100EC0000F900FBE0F901F901895EE0FFF1F05900B
:0A0ED000F491E02D0994F894FFCF8F
:100EDA0044657669636549443A2000736574204322
:100EEA004C4B52433A2E2E2E00646F6E65210066DB
:100EFA0061696C656421204572726F72636F646503
:100F0A003A00736574205465737470617474657201
:100F1A006E3A2E2E2E002D2D2D2D2D2D2D2D2D2DD3
:100F2A002D2D2D2D2D2D2D2D2D2D2D00434C4B3AB4
:100F3A00200073657474696E6720566964656F660C
:100F4A006F726D61743A2000534343423A205363EF
:100F5A006872656962656E206665686C6765736349
:100F6A00686C6167656E004572726F723A2000465E
:100F7A0065686C657221204572726F72636F646571
:040F8A003A20000009
:00000001FF
